{
  "_format": "hh-sol-artifact-1",
  "contractName": "Termyt",
  "sourceName": "contracts/Termyt.sol",
  "abi": [
    {
      "inputs": [
        {
          "internalType": "string",
          "name": "_name",
          "type": "string"
        },
        {
          "internalType": "string",
          "name": "_symbol",
          "type": "string"
        },
        {
          "internalType": "string",
          "name": "initBaseURI",
          "type": "string"
        }
      ],
      "stateMutability": "nonpayable",
      "type": "constructor"
    },
    {
      "anonymous": false,
      "inputs": [
        {
          "indexed": true,
          "internalType": "address",
          "name": "owner",
          "type": "address"
        },
        {
          "indexed": true,
          "internalType": "address",
          "name": "approved",
          "type": "address"
        },
        {
          "indexed": true,
          "internalType": "uint256",
          "name": "tokenId",
          "type": "uint256"
        }
      ],
      "name": "Approval",
      "type": "event"
    },
    {
      "anonymous": false,
      "inputs": [
        {
          "indexed": true,
          "internalType": "address",
          "name": "owner",
          "type": "address"
        },
        {
          "indexed": true,
          "internalType": "address",
          "name": "operator",
          "type": "address"
        },
        {
          "indexed": false,
          "internalType": "bool",
          "name": "approved",
          "type": "bool"
        }
      ],
      "name": "ApprovalForAll",
      "type": "event"
    },
    {
      "anonymous": false,
      "inputs": [
        {
          "indexed": true,
          "internalType": "address",
          "name": "owner",
          "type": "address"
        },
        {
          "indexed": true,
          "internalType": "uint256",
          "name": "amount",
          "type": "uint256"
        }
      ],
      "name": "Minted",
      "type": "event"
    },
    {
      "anonymous": false,
      "inputs": [
        {
          "indexed": true,
          "internalType": "address",
          "name": "previousOwner",
          "type": "address"
        },
        {
          "indexed": true,
          "internalType": "address",
          "name": "newOwner",
          "type": "address"
        }
      ],
      "name": "OwnershipTransferred",
      "type": "event"
    },
    {
      "anonymous": false,
      "inputs": [
        {
          "indexed": true,
          "internalType": "address",
          "name": "from",
          "type": "address"
        },
        {
          "indexed": true,
          "internalType": "address",
          "name": "to",
          "type": "address"
        },
        {
          "indexed": true,
          "internalType": "uint256",
          "name": "tokenId",
          "type": "uint256"
        }
      ],
      "name": "Transfer",
      "type": "event"
    },
    {
      "inputs": [
        {
          "internalType": "address",
          "name": "to",
          "type": "address"
        },
        {
          "internalType": "uint256",
          "name": "tokenId",
          "type": "uint256"
        }
      ],
      "name": "approve",
      "outputs": [],
      "stateMutability": "nonpayable",
      "type": "function"
    },
    {
      "inputs": [
        {
          "internalType": "address",
          "name": "owner",
          "type": "address"
        }
      ],
      "name": "balanceOf",
      "outputs": [
        {
          "internalType": "uint256",
          "name": "",
          "type": "uint256"
        }
      ],
      "stateMutability": "view",
      "type": "function"
    },
    {
      "inputs": [],
      "name": "baseExtension",
      "outputs": [
        {
          "internalType": "string",
          "name": "",
          "type": "string"
        }
      ],
      "stateMutability": "view",
      "type": "function"
    },
    {
      "inputs": [],
      "name": "cost",
      "outputs": [
        {
          "internalType": "uint256",
          "name": "",
          "type": "uint256"
        }
      ],
      "stateMutability": "view",
      "type": "function"
    },
    {
      "inputs": [
        {
          "internalType": "uint256",
          "name": "tokenId",
          "type": "uint256"
        }
      ],
      "name": "getApproved",
      "outputs": [
        {
          "internalType": "address",
          "name": "",
          "type": "address"
        }
      ],
      "stateMutability": "view",
      "type": "function"
    },
    {
      "inputs": [
        {
          "internalType": "address",
          "name": "owner",
          "type": "address"
        },
        {
          "internalType": "address",
          "name": "operator",
          "type": "address"
        }
      ],
      "name": "isApprovedForAll",
      "outputs": [
        {
          "internalType": "bool",
          "name": "",
          "type": "bool"
        }
      ],
      "stateMutability": "view",
      "type": "function"
    },
    {
      "inputs": [],
      "name": "maxMintAmount",
      "outputs": [
        {
          "internalType": "uint256",
          "name": "",
          "type": "uint256"
        }
      ],
      "stateMutability": "view",
      "type": "function"
    },
    {
      "inputs": [],
      "name": "maxSupply",
      "outputs": [
        {
          "internalType": "uint256",
          "name": "",
          "type": "uint256"
        }
      ],
      "stateMutability": "view",
      "type": "function"
    },
    {
      "inputs": [
        {
          "internalType": "uint256",
          "name": "_mintAmount",
          "type": "uint256"
        }
      ],
      "name": "mint",
      "outputs": [],
      "stateMutability": "payable",
      "type": "function"
    },
    {
      "inputs": [],
      "name": "name",
      "outputs": [
        {
          "internalType": "string",
          "name": "",
          "type": "string"
        }
      ],
      "stateMutability": "view",
      "type": "function"
    },
    {
      "inputs": [],
      "name": "owner",
      "outputs": [
        {
          "internalType": "address",
          "name": "",
          "type": "address"
        }
      ],
      "stateMutability": "view",
      "type": "function"
    },
    {
      "inputs": [
        {
          "internalType": "uint256",
          "name": "tokenId",
          "type": "uint256"
        }
      ],
      "name": "ownerOf",
      "outputs": [
        {
          "internalType": "address",
          "name": "",
          "type": "address"
        }
      ],
      "stateMutability": "view",
      "type": "function"
    },
    {
      "inputs": [
        {
          "internalType": "bool",
          "name": "_state",
          "type": "bool"
        }
      ],
      "name": "pause",
      "outputs": [],
      "stateMutability": "nonpayable",
      "type": "function"
    },
    {
      "inputs": [],
      "name": "paused",
      "outputs": [
        {
          "internalType": "bool",
          "name": "",
          "type": "bool"
        }
      ],
      "stateMutability": "view",
      "type": "function"
    },
    {
      "inputs": [],
      "name": "renounceOwnership",
      "outputs": [],
      "stateMutability": "nonpayable",
      "type": "function"
    },
    {
      "inputs": [
        {
          "internalType": "address",
          "name": "from",
          "type": "address"
        },
        {
          "internalType": "address",
          "name": "to",
          "type": "address"
        },
        {
          "internalType": "uint256",
          "name": "tokenId",
          "type": "uint256"
        }
      ],
      "name": "safeTransferFrom",
      "outputs": [],
      "stateMutability": "nonpayable",
      "type": "function"
    },
    {
      "inputs": [
        {
          "internalType": "address",
          "name": "from",
          "type": "address"
        },
        {
          "internalType": "address",
          "name": "to",
          "type": "address"
        },
        {
          "internalType": "uint256",
          "name": "tokenId",
          "type": "uint256"
        },
        {
          "internalType": "bytes",
          "name": "data",
          "type": "bytes"
        }
      ],
      "name": "safeTransferFrom",
      "outputs": [],
      "stateMutability": "nonpayable",
      "type": "function"
    },
    {
      "inputs": [
        {
          "internalType": "address",
          "name": "operator",
          "type": "address"
        },
        {
          "internalType": "bool",
          "name": "approved",
          "type": "bool"
        }
      ],
      "name": "setApprovalForAll",
      "outputs": [],
      "stateMutability": "nonpayable",
      "type": "function"
    },
    {
      "inputs": [
        {
          "internalType": "string",
          "name": "_newBaseExtension",
          "type": "string"
        }
      ],
      "name": "setBaseExtension",
      "outputs": [],
      "stateMutability": "nonpayable",
      "type": "function"
    },
    {
      "inputs": [
        {
          "internalType": "string",
          "name": "_newBaseURI",
          "type": "string"
        }
      ],
      "name": "setBaseURI",
      "outputs": [],
      "stateMutability": "nonpayable",
      "type": "function"
    },
    {
      "inputs": [
        {
          "internalType": "uint256",
          "name": "_newCost",
          "type": "uint256"
        }
      ],
      "name": "setCost",
      "outputs": [],
      "stateMutability": "nonpayable",
      "type": "function"
    },
    {
      "inputs": [
        {
          "internalType": "uint256",
          "name": "_newmaxMintAmount",
          "type": "uint256"
        }
      ],
      "name": "setmaxMintAmount",
      "outputs": [],
      "stateMutability": "nonpayable",
      "type": "function"
    },
    {
      "inputs": [
        {
          "internalType": "bytes4",
          "name": "interfaceId",
          "type": "bytes4"
        }
      ],
      "name": "supportsInterface",
      "outputs": [
        {
          "internalType": "bool",
          "name": "",
          "type": "bool"
        }
      ],
      "stateMutability": "view",
      "type": "function"
    },
    {
      "inputs": [],
      "name": "symbol",
      "outputs": [
        {
          "internalType": "string",
          "name": "",
          "type": "string"
        }
      ],
      "stateMutability": "view",
      "type": "function"
    },
    {
      "inputs": [
        {
          "internalType": "uint256",
          "name": "index",
          "type": "uint256"
        }
      ],
      "name": "tokenByIndex",
      "outputs": [
        {
          "internalType": "uint256",
          "name": "",
          "type": "uint256"
        }
      ],
      "stateMutability": "view",
      "type": "function"
    },
    {
      "inputs": [
        {
          "internalType": "address",
          "name": "owner",
          "type": "address"
        },
        {
          "internalType": "uint256",
          "name": "index",
          "type": "uint256"
        }
      ],
      "name": "tokenOfOwnerByIndex",
      "outputs": [
        {
          "internalType": "uint256",
          "name": "",
          "type": "uint256"
        }
      ],
      "stateMutability": "view",
      "type": "function"
    },
    {
      "inputs": [
        {
          "internalType": "uint256",
          "name": "tokenId",
          "type": "uint256"
        }
      ],
      "name": "tokenURI",
      "outputs": [
        {
          "internalType": "string",
          "name": "",
          "type": "string"
        }
      ],
      "stateMutability": "view",
      "type": "function"
    },
    {
      "inputs": [],
      "name": "totalSupply",
      "outputs": [
        {
          "internalType": "uint256",
          "name": "",
          "type": "uint256"
        }
      ],
      "stateMutability": "view",
      "type": "function"
    },
    {
      "inputs": [
        {
          "internalType": "address",
          "name": "from",
          "type": "address"
        },
        {
          "internalType": "address",
          "name": "to",
          "type": "address"
        },
        {
          "internalType": "uint256",
          "name": "tokenId",
          "type": "uint256"
        }
      ],
      "name": "transferFrom",
      "outputs": [],
      "stateMutability": "nonpayable",
      "type": "function"
    },
    {
      "inputs": [
        {
          "internalType": "address",
          "name": "newOwner",
          "type": "address"
        }
      ],
      "name": "transferOwnership",
      "outputs": [],
      "stateMutability": "nonpayable",
      "type": "function"
    },
    {
      "inputs": [
        {
          "internalType": "address",
          "name": "_owner",
          "type": "address"
        }
      ],
      "name": "walletOfOwner",
      "outputs": [
        {
          "internalType": "uint256[]",
          "name": "",
          "type": "uint256[]"
        }
      ],
      "stateMutability": "view",
      "type": "function"
    },
    {
      "inputs": [],
      "name": "withdraw",
      "outputs": [],
      "stateMutability": "payable",
      "type": "function"
    }
  ],
  "bytecode": "0x60c06040526005608090815264173539b7b760d91b60a052600c9062000026908262000240565b50670de0b6b3a7640000600d55611388600e556005600f556010805460ff191690553480156200005557600080fd5b5060405162002593380380620025938339810160408190526200007891620003bb565b8282600062000088838262000240565b50600162000097828262000240565b505050620000b4620000ae620000c860201b60201c565b620000cc565b620000bf816200011e565b5050506200044c565b3390565b600a80546001600160a01b038381166001600160a01b0319831681179093556040519116919082907f8be0079c531659141344cd1fd0a4f28419497f9722a3daafe3b4186f6b6457e090600090a35050565b620001286200013a565b600b62000136828262000240565b5050565b600a546001600160a01b03163314620001995760405162461bcd60e51b815260206004820181905260248201527f4f776e61626c653a2063616c6c6572206973206e6f7420746865206f776e6572604482015260640160405180910390fd5b565b634e487b7160e01b600052604160045260246000fd5b600181811c90821680620001c657607f821691505b602082108103620001e757634e487b7160e01b600052602260045260246000fd5b50919050565b601f8211156200023b57600081815260208120601f850160051c81016020861015620002165750805b601f850160051c820191505b81811015620002375782815560010162000222565b5050505b505050565b81516001600160401b038111156200025c576200025c6200019b565b62000274816200026d8454620001b1565b84620001ed565b602080601f831160018114620002ac5760008415620002935750858301515b600019600386901b1c1916600185901b17855562000237565b600085815260208120601f198616915b82811015620002dd57888601518255948401946001909101908401620002bc565b5085821015620002fc5787850151600019600388901b60f8161c191681555b5050505050600190811b01905550565b600082601f8301126200031e57600080fd5b81516001600160401b03808211156200033b576200033b6200019b565b604051601f8301601f19908116603f011681019082821181831017156200036657620003666200019b565b816040528381526020925086838588010111156200038357600080fd5b600091505b83821015620003a7578582018301518183018401529082019062000388565b600093810190920192909252949350505050565b600080600060608486031215620003d157600080fd5b83516001600160401b0380821115620003e957600080fd5b620003f7878388016200030c565b945060208601519150808211156200040e57600080fd5b6200041c878388016200030c565b935060408601519150808211156200043357600080fd5b5062000442868287016200030c565b9150509250925092565b612137806200045c6000396000f3fe6080604052600436106101e35760003560e01c80635c975abb11610102578063a22cb46511610095578063d5abeb0111610064578063d5abeb0114610547578063da3ef23f1461055d578063e985e9c51461057d578063f2fde38b146105c657600080fd5b8063a22cb465146104d2578063b88d4fde146104f2578063c668286214610512578063c87b56dd1461052757600080fd5b80637f00c7a6116100d15780637f00c7a61461046c5780638da5cb5b1461048c57806395d89b41146104aa578063a0712d68146104bf57600080fd5b80635c975abb146103fd5780636352211e1461041757806370a0823114610437578063715018a61461045757600080fd5b806323b872dd1161017a578063438b630011610149578063438b63001461037057806344a0d68a1461039d5780634f6ccce7146103bd57806355f804b3146103dd57600080fd5b806323b872dd146103085780632f745c59146103285780633ccfd60b1461034857806342842e0e1461035057600080fd5b8063095ea7b3116101b6578063095ea7b31461029957806313faede6146102b957806318160ddd146102dd578063239c70ae146102f257600080fd5b806301ffc9a7146101e857806302329a291461021d57806306fdde031461023f578063081812fc14610261575b600080fd5b3480156101f457600080fd5b506102086102033660046119f7565b6105e6565b60405190151581526020015b60405180910390f35b34801561022957600080fd5b5061023d610238366004611a29565b610611565b005b34801561024b57600080fd5b5061025461062c565b6040516102149190611a94565b34801561026d57600080fd5b5061028161027c366004611aa7565b6106be565b6040516001600160a01b039091168152602001610214565b3480156102a557600080fd5b5061023d6102b4366004611ad7565b6106e5565b3480156102c557600080fd5b506102cf600d5481565b604051908152602001610214565b3480156102e957600080fd5b506008546102cf565b3480156102fe57600080fd5b506102cf600f5481565b34801561031457600080fd5b5061023d610323366004611b01565b6107ff565b34801561033457600080fd5b506102cf610343366004611ad7565b610830565b61023d6108c6565b34801561035c57600080fd5b5061023d61036b366004611b01565b610942565b34801561037c57600080fd5b5061039061038b366004611b3d565b61095d565b6040516102149190611b58565b3480156103a957600080fd5b5061023d6103b8366004611aa7565b6109ff565b3480156103c957600080fd5b506102cf6103d8366004611aa7565b610a0c565b3480156103e957600080fd5b5061023d6103f8366004611c28565b610a9f565b34801561040957600080fd5b506010546102089060ff1681565b34801561042357600080fd5b50610281610432366004611aa7565b610ab7565b34801561044357600080fd5b506102cf610452366004611b3d565b610b17565b34801561046357600080fd5b5061023d610b9d565b34801561047857600080fd5b5061023d610487366004611aa7565b610bb1565b34801561049857600080fd5b50600a546001600160a01b0316610281565b3480156104b657600080fd5b50610254610bbe565b61023d6104cd366004611aa7565b610bcd565b3480156104de57600080fd5b5061023d6104ed366004611c71565b610d25565b3480156104fe57600080fd5b5061023d61050d366004611ca4565b610d30565b34801561051e57600080fd5b50610254610d68565b34801561053357600080fd5b50610254610542366004611aa7565b610df6565b34801561055357600080fd5b506102cf600e5481565b34801561056957600080fd5b5061023d610578366004611c28565b610e4f565b34801561058957600080fd5b50610208610598366004611d20565b6001600160a01b03918216600090815260056020908152604080832093909416825291909152205460ff1690565b3480156105d257600080fd5b5061023d6105e1366004611b3d565b610e63565b60006001600160e01b0319821663780e9d6360e01b148061060b575061060b82610ed9565b92915050565b610619610f29565b6010805460ff1916911515919091179055565b60606000805461063b90611d4a565b80601f016020809104026020016040519081016040528092919081815260200182805461066790611d4a565b80156106b45780601f10610689576101008083540402835291602001916106b4565b820191906000526020600020905b81548152906001019060200180831161069757829003601f168201915b5050505050905090565b60006106c982610f83565b506000908152600460205260409020546001600160a01b031690565b60006106f082610ab7565b9050806001600160a01b0316836001600160a01b0316036107625760405162461bcd60e51b815260206004820152602160248201527f4552433732313a20617070726f76616c20746f2063757272656e74206f776e656044820152603960f91b60648201526084015b60405180910390fd5b336001600160a01b038216148061077e575061077e8133610598565b6107f05760405162461bcd60e51b815260206004820152603d60248201527f4552433732313a20617070726f76652063616c6c6572206973206e6f7420746f60448201527f6b656e206f776e6572206f7220617070726f76656420666f7220616c6c0000006064820152608401610759565b6107fa8383610fe2565b505050565b6108093382611050565b6108255760405162461bcd60e51b815260040161075990611d84565b6107fa8383836110cf565b600061083b83610b17565b821061089d5760405162461bcd60e51b815260206004820152602b60248201527f455243373231456e756d657261626c653a206f776e657220696e646578206f7560448201526a74206f6620626f756e647360a81b6064820152608401610759565b506001600160a01b03919091166000908152600660209081526040808320938352929052205490565b6108ce610f29565b60006108e2600a546001600160a01b031690565b6001600160a01b03164760405160006040518083038185875af1925050503d806000811461092c576040519150601f19603f3d011682016040523d82523d6000602084013e610931565b606091505b505090508061093f57600080fd5b50565b6107fa83838360405180602001604052806000815250610d30565b6060600061096a83610b17565b905060008167ffffffffffffffff81111561098757610987611b9c565b6040519080825280602002602001820160405280156109b0578160200160208202803683370190505b50905060005b828110156109f7576109c88582610830565b8282815181106109da576109da611dd1565b6020908102919091010152806109ef81611dfd565b9150506109b6565b509392505050565b610a07610f29565b600d55565b6000610a1760085490565b8210610a7a5760405162461bcd60e51b815260206004820152602c60248201527f455243373231456e756d657261626c653a20676c6f62616c20696e646578206f60448201526b7574206f6620626f756e647360a01b6064820152608401610759565b60088281548110610a8d57610a8d611dd1565b90600052602060002001549050919050565b610aa7610f29565b600b610ab38282611e64565b5050565b6000818152600260205260408120546001600160a01b03168061060b5760405162461bcd60e51b8152602060048201526018602482015277115490cdcc8c4e881a5b9d985b1a59081d1bdad95b88125160421b6044820152606401610759565b60006001600160a01b038216610b815760405162461bcd60e51b815260206004820152602960248201527f4552433732313a2061646472657373207a65726f206973206e6f7420612076616044820152683634b21037bbb732b960b91b6064820152608401610759565b506001600160a01b031660009081526003602052604090205490565b610ba5610f29565b610baf6000611240565b565b610bb9610f29565b600f55565b60606001805461063b90611d4a565b6000610bd860085490565b60105490915060ff1615610beb57600080fd5b600f54821115610c3d5760405162461bcd60e51b815260206004820152601b60248201527f43616e6e6f74206d696e74206d6f7265207468616e20666976652e00000000006044820152606401610759565b600f54610c493361095d565b511115610c985760405162461bcd60e51b815260206004820152601b60248201527f43616e6e6f74206d696e74206d6f7265207468616e20666976652e00000000006044820152606401610759565b600a546001600160a01b03163314610cc45781600d54610cb89190611f24565b341015610cc457600080fd5b60015b828111610cf357610ce133610cdc8385611f3b565b611292565b80610ceb81611dfd565b915050610cc7565b50604051829033907f30385c845b448a36257a6a1716e6ad2e1bc2cbe333cde1e69fe849ad6511adfe90600090a35050565b610ab33383836112ac565b610d3a3383611050565b610d565760405162461bcd60e51b815260040161075990611d84565b610d628484848461137a565b50505050565b600c8054610d7590611d4a565b80601f0160208091040260200160405190810160405280929190818152602001828054610da190611d4a565b8015610dee5780601f10610dc357610100808354040283529160200191610dee565b820191906000526020600020905b815481529060010190602001808311610dd157829003601f168201915b505050505081565b60606000610e026113ad565b90506000815111610e225760405180602001604052806000815250610e48565b8083600c604051602001610e3893929190611f4e565b6040516020818303038152906040525b9392505050565b610e57610f29565b600c610ab38282611e64565b610e6b610f29565b6001600160a01b038116610ed05760405162461bcd60e51b815260206004820152602660248201527f4f776e61626c653a206e6577206f776e657220697320746865207a65726f206160448201526564647265737360d01b6064820152608401610759565b61093f81611240565b60006001600160e01b031982166380ac58cd60e01b1480610f0a57506001600160e01b03198216635b5e139f60e01b145b8061060b57506301ffc9a760e01b6001600160e01b031983161461060b565b600a546001600160a01b03163314610baf5760405162461bcd60e51b815260206004820181905260248201527f4f776e61626c653a2063616c6c6572206973206e6f7420746865206f776e65726044820152606401610759565b6000818152600260205260409020546001600160a01b031661093f5760405162461bcd60e51b8152602060048201526018602482015277115490cdcc8c4e881a5b9d985b1a59081d1bdad95b88125160421b6044820152606401610759565b600081815260046020526040902080546001600160a01b0319166001600160a01b038416908117909155819061101782610ab7565b6001600160a01b03167f8c5be1e5ebec7d5bd14f71427d1e84f3dd0314c0f7b2291e5b200ac8c7c3b92560405160405180910390a45050565b60008061105c83610ab7565b9050806001600160a01b0316846001600160a01b031614806110a357506001600160a01b0380821660009081526005602090815260408083209388168352929052205460ff165b806110c75750836001600160a01b03166110bc846106be565b6001600160a01b0316145b949350505050565b826001600160a01b03166110e282610ab7565b6001600160a01b0316146111085760405162461bcd60e51b815260040161075990611fe7565b6001600160a01b03821661116a5760405162461bcd60e51b8152602060048201526024808201527f4552433732313a207472616e7366657220746f20746865207a65726f206164646044820152637265737360e01b6064820152608401610759565b61117783838360016113bc565b826001600160a01b031661118a82610ab7565b6001600160a01b0316146111b05760405162461bcd60e51b815260040161075990611fe7565b600081815260046020908152604080832080546001600160a01b03199081169091556001600160a01b0387811680865260038552838620805460001901905590871680865283862080546001019055868652600290945282852080549092168417909155905184937fddf252ad1be2c89b69c2b068fc378daa952ba7f163c4a11628f55a4df523b3ef91a4505050565b600a80546001600160a01b038381166001600160a01b0319831681179093556040519116919082907f8be0079c531659141344cd1fd0a4f28419497f9722a3daafe3b4186f6b6457e090600090a35050565b610ab38282604051806020016040528060008152506114fc565b816001600160a01b0316836001600160a01b03160361130d5760405162461bcd60e51b815260206004820152601960248201527f4552433732313a20617070726f766520746f2063616c6c6572000000000000006044820152606401610759565b6001600160a01b03838116600081815260056020908152604080832094871680845294825291829020805460ff191686151590811790915591519182527f17307eab39ab6107e8899845ad3d59bd9653f200f220920489ca2b5937696c31910160405180910390a3505050565b6113858484846110cf565b6113918484848461152f565b610d625760405162461bcd60e51b81526004016107599061202c565b6060600b805461063b90611d4a565b6113c884848484611630565b60018111156114375760405162461bcd60e51b815260206004820152603560248201527f455243373231456e756d657261626c653a20636f6e7365637574697665207472604482015274185b9cd9995c9cc81b9bdd081cdd5c1c1bdc9d1959605a1b6064820152608401610759565b816001600160a01b0385166114935761148e81600880546000838152600960205260408120829055600182018355919091527ff3f7a9fe364faab93b216da50a3214154f22a0a2b415b23a84c8169e8b636ee30155565b6114b6565b836001600160a01b0316856001600160a01b0316146114b6576114b685826116b8565b6001600160a01b0384166114d2576114cd81611755565b6114f5565b846001600160a01b0316846001600160a01b0316146114f5576114f58482611804565b5050505050565b6115068383611848565b611513600084848461152f565b6107fa5760405162461bcd60e51b81526004016107599061202c565b60006001600160a01b0384163b1561162557604051630a85bd0160e11b81526001600160a01b0385169063150b7a029061157390339089908890889060040161207e565b6020604051808303816000875af19250505080156115ae575060408051601f3d908101601f191682019092526115ab918101906120bb565b60015b61160b573d8080156115dc576040519150601f19603f3d011682016040523d82523d6000602084013e6115e1565b606091505b5080516000036116035760405162461bcd60e51b81526004016107599061202c565b805181602001fd5b6001600160e01b031916630a85bd0160e11b1490506110c7565b506001949350505050565b6001811115610d62576001600160a01b03841615611676576001600160a01b038416600090815260036020526040812080548392906116709084906120d8565b90915550505b6001600160a01b03831615610d62576001600160a01b038316600090815260036020526040812080548392906116ad908490611f3b565b909155505050505050565b600060016116c584610b17565b6116cf91906120d8565b600083815260076020526040902054909150808214611722576001600160a01b03841660009081526006602090815260408083208584528252808320548484528184208190558352600790915290208190555b5060009182526007602090815260408084208490556001600160a01b039094168352600681528383209183525290812055565b600854600090611767906001906120d8565b6000838152600960205260408120546008805493945090928490811061178f5761178f611dd1565b9060005260206000200154905080600883815481106117b0576117b0611dd1565b60009182526020808320909101929092558281526009909152604080822084905585825281205560088054806117e8576117e86120eb565b6001900381819060005260206000200160009055905550505050565b600061180f83610b17565b6001600160a01b039093166000908152600660209081526040808320868452825280832085905593825260079052919091209190915550565b6001600160a01b03821661189e5760405162461bcd60e51b815260206004820181905260248201527f4552433732313a206d696e7420746f20746865207a65726f20616464726573736044820152606401610759565b6000818152600260205260409020546001600160a01b0316156119035760405162461bcd60e51b815260206004820152601c60248201527f4552433732313a20746f6b656e20616c7265616479206d696e746564000000006044820152606401610759565b6119116000838360016113bc565b6000818152600260205260409020546001600160a01b0316156119765760405162461bcd60e51b815260206004820152601c60248201527f4552433732313a20746f6b656e20616c7265616479206d696e746564000000006044820152606401610759565b6001600160a01b038216600081815260036020908152604080832080546001019055848352600290915280822080546001600160a01b0319168417905551839291907fddf252ad1be2c89b69c2b068fc378daa952ba7f163c4a11628f55a4df523b3ef908290a45050565b6001600160e01b03198116811461093f57600080fd5b600060208284031215611a0957600080fd5b8135610e48816119e1565b80358015158114611a2457600080fd5b919050565b600060208284031215611a3b57600080fd5b610e4882611a14565b60005b83811015611a5f578181015183820152602001611a47565b50506000910152565b60008151808452611a80816020860160208601611a44565b601f01601f19169290920160200192915050565b602081526000610e486020830184611a68565b600060208284031215611ab957600080fd5b5035919050565b80356001600160a01b0381168114611a2457600080fd5b60008060408385031215611aea57600080fd5b611af383611ac0565b946020939093013593505050565b600080600060608486031215611b1657600080fd5b611b1f84611ac0565b9250611b2d60208501611ac0565b9150604084013590509250925092565b600060208284031215611b4f57600080fd5b610e4882611ac0565b6020808252825182820181905260009190848201906040850190845b81811015611b9057835183529284019291840191600101611b74565b50909695505050505050565b634e487b7160e01b600052604160045260246000fd5b600067ffffffffffffffff80841115611bcd57611bcd611b9c565b604051601f8501601f19908116603f01168101908282118183101715611bf557611bf5611b9c565b81604052809350858152868686011115611c0e57600080fd5b858560208301376000602087830101525050509392505050565b600060208284031215611c3a57600080fd5b813567ffffffffffffffff811115611c5157600080fd5b8201601f81018413611c6257600080fd5b6110c784823560208401611bb2565b60008060408385031215611c8457600080fd5b611c8d83611ac0565b9150611c9b60208401611a14565b90509250929050565b60008060008060808587031215611cba57600080fd5b611cc385611ac0565b9350611cd160208601611ac0565b925060408501359150606085013567ffffffffffffffff811115611cf457600080fd5b8501601f81018713611d0557600080fd5b611d1487823560208401611bb2565b91505092959194509250565b60008060408385031215611d3357600080fd5b611d3c83611ac0565b9150611c9b60208401611ac0565b600181811c90821680611d5e57607f821691505b602082108103611d7e57634e487b7160e01b600052602260045260246000fd5b50919050565b6020808252602d908201527f4552433732313a2063616c6c6572206973206e6f7420746f6b656e206f776e6560408201526c1c881bdc88185c1c1c9bdd9959609a1b606082015260800190565b634e487b7160e01b600052603260045260246000fd5b634e487b7160e01b600052601160045260246000fd5b600060018201611e0f57611e0f611de7565b5060010190565b601f8211156107fa57600081815260208120601f850160051c81016020861015611e3d5750805b601f850160051c820191505b81811015611e5c57828155600101611e49565b505050505050565b815167ffffffffffffffff811115611e7e57611e7e611b9c565b611e9281611e8c8454611d4a565b84611e16565b602080601f831160018114611ec75760008415611eaf5750858301515b600019600386901b1c1916600185901b178555611e5c565b600085815260208120601f198616915b82811015611ef657888601518255948401946001909101908401611ed7565b5085821015611f145787850151600019600388901b60f8161c191681555b5050505050600190811b01905550565b808202811582820484141761060b5761060b611de7565b8082018082111561060b5761060b611de7565b600084516020611f618285838a01611a44565b818401915085825260008554611f7681611d4a565b60018281168015611f8e5760018114611fa757611fd7565b60ff198416878701528215158302870186019450611fd7565b896000528560002060005b84811015611fcd578154898201890152908301908701611fb2565b5050858388010194505b50929a9950505050505050505050565b60208082526025908201527f4552433732313a207472616e736665722066726f6d20696e636f72726563742060408201526437bbb732b960d91b606082015260800190565b60208082526032908201527f4552433732313a207472616e7366657220746f206e6f6e20455243373231526560408201527131b2b4bb32b91034b6b83632b6b2b73a32b960711b606082015260800190565b6001600160a01b03858116825284166020820152604081018390526080606082018190526000906120b190830184611a68565b9695505050505050565b6000602082840312156120cd57600080fd5b8151610e48816119e1565b8181038181111561060b5761060b611de7565b634e487b7160e01b600052603160045260246000fdfea2646970667358221220e5a048bc9385bd6673e22d099969ffd4d748124a4119c8ffdd8ea91cd9d3850f64736f6c63430008110033",
  "linkReferences": {},
  "deployedLinkReferences": {}
}