{
  "_format": "hh-sol-artifact-1",
  "contractName": "Termyt",
  "sourceName": "contracts/Termyt.sol",
  "abi": [
    {
      "inputs": [
        {
          "internalType": "string",
          "name": "_name",
          "type": "string"
        },
        {
          "internalType": "string",
          "name": "_symbol",
          "type": "string"
        },
        {
          "internalType": "string",
          "name": "initBaseURI",
          "type": "string"
        }
      ],
      "stateMutability": "nonpayable",
      "type": "constructor"
    },
    {
      "anonymous": false,
      "inputs": [
        {
          "indexed": true,
          "internalType": "address",
          "name": "owner",
          "type": "address"
        },
        {
          "indexed": true,
          "internalType": "address",
          "name": "approved",
          "type": "address"
        },
        {
          "indexed": true,
          "internalType": "uint256",
          "name": "tokenId",
          "type": "uint256"
        }
      ],
      "name": "Approval",
      "type": "event"
    },
    {
      "anonymous": false,
      "inputs": [
        {
          "indexed": true,
          "internalType": "address",
          "name": "owner",
          "type": "address"
        },
        {
          "indexed": true,
          "internalType": "address",
          "name": "operator",
          "type": "address"
        },
        {
          "indexed": false,
          "internalType": "bool",
          "name": "approved",
          "type": "bool"
        }
      ],
      "name": "ApprovalForAll",
      "type": "event"
    },
    {
      "anonymous": false,
      "inputs": [
        {
          "indexed": true,
          "internalType": "address",
          "name": "owner",
          "type": "address"
        },
        {
          "indexed": true,
          "internalType": "uint256",
          "name": "amount",
          "type": "uint256"
        }
      ],
      "name": "Minted",
      "type": "event"
    },
    {
      "anonymous": false,
      "inputs": [
        {
          "indexed": true,
          "internalType": "address",
          "name": "previousOwner",
          "type": "address"
        },
        {
          "indexed": true,
          "internalType": "address",
          "name": "newOwner",
          "type": "address"
        }
      ],
      "name": "OwnershipTransferred",
      "type": "event"
    },
    {
      "anonymous": false,
      "inputs": [
        {
          "indexed": true,
          "internalType": "address",
          "name": "from",
          "type": "address"
        },
        {
          "indexed": true,
          "internalType": "address",
          "name": "to",
          "type": "address"
        },
        {
          "indexed": true,
          "internalType": "uint256",
          "name": "tokenId",
          "type": "uint256"
        }
      ],
      "name": "Transfer",
      "type": "event"
    },
    {
      "inputs": [
        {
          "internalType": "address",
          "name": "to",
          "type": "address"
        },
        {
          "internalType": "uint256",
          "name": "tokenId",
          "type": "uint256"
        }
      ],
      "name": "approve",
      "outputs": [],
      "stateMutability": "nonpayable",
      "type": "function"
    },
    {
      "inputs": [
        {
          "internalType": "address",
          "name": "owner",
          "type": "address"
        }
      ],
      "name": "balanceOf",
      "outputs": [
        {
          "internalType": "uint256",
          "name": "",
          "type": "uint256"
        }
      ],
      "stateMutability": "view",
      "type": "function"
    },
    {
      "inputs": [],
      "name": "baseExtension",
      "outputs": [
        {
          "internalType": "string",
          "name": "",
          "type": "string"
        }
      ],
      "stateMutability": "view",
      "type": "function"
    },
    {
      "inputs": [],
      "name": "cost",
      "outputs": [
        {
          "internalType": "uint256",
          "name": "",
          "type": "uint256"
        }
      ],
      "stateMutability": "view",
      "type": "function"
    },
    {
      "inputs": [
        {
          "internalType": "uint256",
          "name": "tokenId",
          "type": "uint256"
        }
      ],
      "name": "getApproved",
      "outputs": [
        {
          "internalType": "address",
          "name": "",
          "type": "address"
        }
      ],
      "stateMutability": "view",
      "type": "function"
    },
    {
      "inputs": [
        {
          "internalType": "address",
          "name": "owner",
          "type": "address"
        },
        {
          "internalType": "address",
          "name": "operator",
          "type": "address"
        }
      ],
      "name": "isApprovedForAll",
      "outputs": [
        {
          "internalType": "bool",
          "name": "",
          "type": "bool"
        }
      ],
      "stateMutability": "view",
      "type": "function"
    },
    {
      "inputs": [],
      "name": "maxMintAmount",
      "outputs": [
        {
          "internalType": "uint256",
          "name": "",
          "type": "uint256"
        }
      ],
      "stateMutability": "view",
      "type": "function"
    },
    {
      "inputs": [],
      "name": "maxPreSaleMintSupply",
      "outputs": [
        {
          "internalType": "uint256",
          "name": "",
          "type": "uint256"
        }
      ],
      "stateMutability": "view",
      "type": "function"
    },
    {
      "inputs": [],
      "name": "maxPublicMintSupply",
      "outputs": [
        {
          "internalType": "uint256",
          "name": "",
          "type": "uint256"
        }
      ],
      "stateMutability": "view",
      "type": "function"
    },
    {
      "inputs": [],
      "name": "maxSupply",
      "outputs": [
        {
          "internalType": "uint256",
          "name": "",
          "type": "uint256"
        }
      ],
      "stateMutability": "view",
      "type": "function"
    },
    {
      "inputs": [
        {
          "internalType": "uint256",
          "name": "_mintAmount",
          "type": "uint256"
        }
      ],
      "name": "mint",
      "outputs": [],
      "stateMutability": "payable",
      "type": "function"
    },
    {
      "inputs": [],
      "name": "name",
      "outputs": [
        {
          "internalType": "string",
          "name": "",
          "type": "string"
        }
      ],
      "stateMutability": "view",
      "type": "function"
    },
    {
      "inputs": [],
      "name": "owner",
      "outputs": [
        {
          "internalType": "address",
          "name": "",
          "type": "address"
        }
      ],
      "stateMutability": "view",
      "type": "function"
    },
    {
      "inputs": [
        {
          "internalType": "uint256",
          "name": "tokenId",
          "type": "uint256"
        }
      ],
      "name": "ownerOf",
      "outputs": [
        {
          "internalType": "address",
          "name": "",
          "type": "address"
        }
      ],
      "stateMutability": "view",
      "type": "function"
    },
    {
      "inputs": [
        {
          "internalType": "bool",
          "name": "_state",
          "type": "bool"
        }
      ],
      "name": "pause",
      "outputs": [],
      "stateMutability": "nonpayable",
      "type": "function"
    },
    {
      "inputs": [],
      "name": "paused",
      "outputs": [
        {
          "internalType": "bool",
          "name": "",
          "type": "bool"
        }
      ],
      "stateMutability": "view",
      "type": "function"
    },
    {
      "inputs": [],
      "name": "preSaleMintState",
      "outputs": [
        {
          "internalType": "bool",
          "name": "",
          "type": "bool"
        }
      ],
      "stateMutability": "view",
      "type": "function"
    },
    {
      "inputs": [],
      "name": "publicMintState",
      "outputs": [
        {
          "internalType": "bool",
          "name": "",
          "type": "bool"
        }
      ],
      "stateMutability": "view",
      "type": "function"
    },
    {
      "inputs": [],
      "name": "renounceOwnership",
      "outputs": [],
      "stateMutability": "nonpayable",
      "type": "function"
    },
    {
      "inputs": [
        {
          "internalType": "address",
          "name": "from",
          "type": "address"
        },
        {
          "internalType": "address",
          "name": "to",
          "type": "address"
        },
        {
          "internalType": "uint256",
          "name": "tokenId",
          "type": "uint256"
        }
      ],
      "name": "safeTransferFrom",
      "outputs": [],
      "stateMutability": "nonpayable",
      "type": "function"
    },
    {
      "inputs": [
        {
          "internalType": "address",
          "name": "from",
          "type": "address"
        },
        {
          "internalType": "address",
          "name": "to",
          "type": "address"
        },
        {
          "internalType": "uint256",
          "name": "tokenId",
          "type": "uint256"
        },
        {
          "internalType": "bytes",
          "name": "data",
          "type": "bytes"
        }
      ],
      "name": "safeTransferFrom",
      "outputs": [],
      "stateMutability": "nonpayable",
      "type": "function"
    },
    {
      "inputs": [
        {
          "internalType": "address",
          "name": "operator",
          "type": "address"
        },
        {
          "internalType": "bool",
          "name": "approved",
          "type": "bool"
        }
      ],
      "name": "setApprovalForAll",
      "outputs": [],
      "stateMutability": "nonpayable",
      "type": "function"
    },
    {
      "inputs": [
        {
          "internalType": "string",
          "name": "_newBaseExtension",
          "type": "string"
        }
      ],
      "name": "setBaseExtension",
      "outputs": [],
      "stateMutability": "nonpayable",
      "type": "function"
    },
    {
      "inputs": [
        {
          "internalType": "string",
          "name": "_newBaseURI",
          "type": "string"
        }
      ],
      "name": "setBaseURI",
      "outputs": [],
      "stateMutability": "nonpayable",
      "type": "function"
    },
    {
      "inputs": [
        {
          "internalType": "uint256",
          "name": "_newCost",
          "type": "uint256"
        }
      ],
      "name": "setCost",
      "outputs": [],
      "stateMutability": "nonpayable",
      "type": "function"
    },
    {
      "inputs": [
        {
          "internalType": "bool",
          "name": "_state",
          "type": "bool"
        }
      ],
      "name": "setPreSaleMintState",
      "outputs": [],
      "stateMutability": "nonpayable",
      "type": "function"
    },
    {
      "inputs": [
        {
          "internalType": "bool",
          "name": "_state",
          "type": "bool"
        }
      ],
      "name": "setPublicMintState",
      "outputs": [],
      "stateMutability": "nonpayable",
      "type": "function"
    },
    {
      "inputs": [
        {
          "internalType": "uint256",
          "name": "_newmaxMintAmount",
          "type": "uint256"
        }
      ],
      "name": "setmaxMintAmount",
      "outputs": [],
      "stateMutability": "nonpayable",
      "type": "function"
    },
    {
      "inputs": [
        {
          "internalType": "bytes4",
          "name": "interfaceId",
          "type": "bytes4"
        }
      ],
      "name": "supportsInterface",
      "outputs": [
        {
          "internalType": "bool",
          "name": "",
          "type": "bool"
        }
      ],
      "stateMutability": "view",
      "type": "function"
    },
    {
      "inputs": [],
      "name": "symbol",
      "outputs": [
        {
          "internalType": "string",
          "name": "",
          "type": "string"
        }
      ],
      "stateMutability": "view",
      "type": "function"
    },
    {
      "inputs": [
        {
          "internalType": "uint256",
          "name": "index",
          "type": "uint256"
        }
      ],
      "name": "tokenByIndex",
      "outputs": [
        {
          "internalType": "uint256",
          "name": "",
          "type": "uint256"
        }
      ],
      "stateMutability": "view",
      "type": "function"
    },
    {
      "inputs": [
        {
          "internalType": "address",
          "name": "owner",
          "type": "address"
        },
        {
          "internalType": "uint256",
          "name": "index",
          "type": "uint256"
        }
      ],
      "name": "tokenOfOwnerByIndex",
      "outputs": [
        {
          "internalType": "uint256",
          "name": "",
          "type": "uint256"
        }
      ],
      "stateMutability": "view",
      "type": "function"
    },
    {
      "inputs": [
        {
          "internalType": "uint256",
          "name": "tokenId",
          "type": "uint256"
        }
      ],
      "name": "tokenURI",
      "outputs": [
        {
          "internalType": "string",
          "name": "",
          "type": "string"
        }
      ],
      "stateMutability": "view",
      "type": "function"
    },
    {
      "inputs": [],
      "name": "totalSupply",
      "outputs": [
        {
          "internalType": "uint256",
          "name": "",
          "type": "uint256"
        }
      ],
      "stateMutability": "view",
      "type": "function"
    },
    {
      "inputs": [
        {
          "internalType": "address",
          "name": "from",
          "type": "address"
        },
        {
          "internalType": "address",
          "name": "to",
          "type": "address"
        },
        {
          "internalType": "uint256",
          "name": "tokenId",
          "type": "uint256"
        }
      ],
      "name": "transferFrom",
      "outputs": [],
      "stateMutability": "nonpayable",
      "type": "function"
    },
    {
      "inputs": [
        {
          "internalType": "address",
          "name": "newOwner",
          "type": "address"
        }
      ],
      "name": "transferOwnership",
      "outputs": [],
      "stateMutability": "nonpayable",
      "type": "function"
    },
    {
      "inputs": [
        {
          "internalType": "address",
          "name": "_owner",
          "type": "address"
        }
      ],
      "name": "walletOfOwner",
      "outputs": [
        {
          "internalType": "uint256[]",
          "name": "",
          "type": "uint256[]"
        }
      ],
      "stateMutability": "view",
      "type": "function"
    },
    {
      "inputs": [],
      "name": "withdraw",
      "outputs": [],
      "stateMutability": "payable",
      "type": "function"
    }
  ],
  "bytecode": "0x60c06040526005608090815264173539b7b760d91b60a052600c90620000269082620002dc565b50670de0b6b3a7640000600d55611388600e556105dc600f55610dac60105560056011556012805462ffffff191690553480156200006357600080fd5b506040516200288138038062002881833981016040819052620000869162000457565b82826000620000968382620002dc565b506001620000a58282620002dc565b505050620000c2620000bc6200014a60201b60201c565b6200014e565b600e54601054600f54620000d79190620004e8565b146200012a5760405162461bcd60e51b815260206004820152601f60248201527f506c656173652061646a75737420537570706c7920706172616d65746572730060448201526064015b60405180910390fd5b6200013581620001a0565b620001416001620001bc565b50505062000510565b3390565b600a80546001600160a01b038381166001600160a01b0319831681179093556040519116919082907f8be0079c531659141344cd1fd0a4f28419497f9722a3daafe3b4186f6b6457e090600090a35050565b620001aa620001d9565b600b620001b88282620002dc565b5050565b620001c6620001d9565b6012805460ff1916911515919091179055565b600a546001600160a01b03163314620002355760405162461bcd60e51b815260206004820181905260248201527f4f776e61626c653a2063616c6c6572206973206e6f7420746865206f776e6572604482015260640162000121565b565b634e487b7160e01b600052604160045260246000fd5b600181811c908216806200026257607f821691505b6020821081036200028357634e487b7160e01b600052602260045260246000fd5b50919050565b601f821115620002d757600081815260208120601f850160051c81016020861015620002b25750805b601f850160051c820191505b81811015620002d357828155600101620002be565b5050505b505050565b81516001600160401b03811115620002f857620002f862000237565b62000310816200030984546200024d565b8462000289565b602080601f8311600181146200034857600084156200032f5750858301515b600019600386901b1c1916600185901b178555620002d3565b600085815260208120601f198616915b82811015620003795788860151825594840194600190910190840162000358565b5085821015620003985787850151600019600388901b60f8161c191681555b5050505050600190811b01905550565b600082601f830112620003ba57600080fd5b81516001600160401b0380821115620003d757620003d762000237565b604051601f8301601f19908116603f0116810190828211818310171562000402576200040262000237565b816040528381526020925086838588010111156200041f57600080fd5b600091505b8382101562000443578582018301518183018401529082019062000424565b600093810190920192909252949350505050565b6000806000606084860312156200046d57600080fd5b83516001600160401b03808211156200048557600080fd5b6200049387838801620003a8565b94506020860151915080821115620004aa57600080fd5b620004b887838801620003a8565b93506040860151915080821115620004cf57600080fd5b50620004de86828701620003a8565b9150509250925092565b808201808211156200050a57634e487b7160e01b600052601160045260246000fd5b92915050565b61236180620005206000396000f3fe6080604052600436106102255760003560e01c80635c975abb11610123578063a0712d68116100ab578063c87b56dd1161006f578063c87b56dd14610614578063d5abeb0114610634578063da3ef23f1461064a578063e985e9c51461066a578063f2fde38b146106b357600080fd5b8063a0712d6814610592578063a22cb465146105a5578063b88d4fde146105c5578063c245288d146105e5578063c6682862146105ff57600080fd5b8063715018a6116100f2578063715018a61461050a5780637f00c7a61461051f578063879fbedf1461053f5780638da5cb5b1461055f57806395d89b411461057d57600080fd5b80635c975abb146104945780636352211e146104b45780636f508cf9146104d457806370a08231146104ea57600080fd5b806323b872dd116101b1578063438b630011610175578063438b6300146103e757806344a0d68a146104145780634f6ccce714610434578063558db3831461045457806355f804b31461047457600080fd5b806323b872dd146103695780632f745c59146103895780633ccfd60b146103a957806342842e0e146103b157806342e315f4146103d157600080fd5b8063095ea7b3116101f8578063095ea7b3146102db57806313faede6146102fb57806318160ddd1461031f57806322ab47a114610334578063239c70ae1461035357600080fd5b806301ffc9a71461022a57806302329a291461025f57806306fdde0314610281578063081812fc146102a3575b600080fd5b34801561023657600080fd5b5061024a610245366004611c21565b6106d3565b60405190151581526020015b60405180910390f35b34801561026b57600080fd5b5061027f61027a366004611c53565b6106fe565b005b34801561028d57600080fd5b50610296610722565b6040516102569190611cbe565b3480156102af57600080fd5b506102c36102be366004611cd1565b6107b4565b6040516001600160a01b039091168152602001610256565b3480156102e757600080fd5b5061027f6102f6366004611d01565b6107db565b34801561030757600080fd5b50610311600d5481565b604051908152602001610256565b34801561032b57600080fd5b50600854610311565b34801561034057600080fd5b5060125461024a90610100900460ff1681565b34801561035f57600080fd5b5061031160115481565b34801561037557600080fd5b5061027f610384366004611d2b565b6108f5565b34801561039557600080fd5b506103116103a4366004611d01565b610926565b61027f6109bc565b3480156103bd57600080fd5b5061027f6103cc366004611d2b565b610a38565b3480156103dd57600080fd5b5061031160105481565b3480156103f357600080fd5b50610407610402366004611d67565b610a53565b6040516102569190611d82565b34801561042057600080fd5b5061027f61042f366004611cd1565b610af5565b34801561044057600080fd5b5061031161044f366004611cd1565b610b02565b34801561046057600080fd5b5061027f61046f366004611c53565b610b95565b34801561048057600080fd5b5061027f61048f366004611e52565b610bb0565b3480156104a057600080fd5b5060125461024a9062010000900460ff1681565b3480156104c057600080fd5b506102c36104cf366004611cd1565b610bc8565b3480156104e057600080fd5b50610311600f5481565b3480156104f657600080fd5b50610311610505366004611d67565b610c28565b34801561051657600080fd5b5061027f610cae565b34801561052b57600080fd5b5061027f61053a366004611cd1565b610cc2565b34801561054b57600080fd5b5061027f61055a366004611c53565b610ccf565b34801561056b57600080fd5b50600a546001600160a01b03166102c3565b34801561058957600080fd5b50610296610cf1565b61027f6105a0366004611cd1565b610d00565b3480156105b157600080fd5b5061027f6105c0366004611e9b565b610f4f565b3480156105d157600080fd5b5061027f6105e0366004611ece565b610f5a565b3480156105f157600080fd5b5060125461024a9060ff1681565b34801561060b57600080fd5b50610296610f92565b34801561062057600080fd5b5061029661062f366004611cd1565b611020565b34801561064057600080fd5b50610311600e5481565b34801561065657600080fd5b5061027f610665366004611e52565b611079565b34801561067657600080fd5b5061024a610685366004611f4a565b6001600160a01b03918216600090815260056020908152604080832093909416825291909152205460ff1690565b3480156106bf57600080fd5b5061027f6106ce366004611d67565b61108d565b60006001600160e01b0319821663780e9d6360e01b14806106f857506106f882611103565b92915050565b610706611153565b60128054911515620100000262ff000019909216919091179055565b60606000805461073190611f74565b80601f016020809104026020016040519081016040528092919081815260200182805461075d90611f74565b80156107aa5780601f1061077f576101008083540402835291602001916107aa565b820191906000526020600020905b81548152906001019060200180831161078d57829003601f168201915b5050505050905090565b60006107bf826111ad565b506000908152600460205260409020546001600160a01b031690565b60006107e682610bc8565b9050806001600160a01b0316836001600160a01b0316036108585760405162461bcd60e51b815260206004820152602160248201527f4552433732313a20617070726f76616c20746f2063757272656e74206f776e656044820152603960f91b60648201526084015b60405180910390fd5b336001600160a01b038216148061087457506108748133610685565b6108e65760405162461bcd60e51b815260206004820152603d60248201527f4552433732313a20617070726f76652063616c6c6572206973206e6f7420746f60448201527f6b656e206f776e6572206f7220617070726f76656420666f7220616c6c000000606482015260840161084f565b6108f0838361120c565b505050565b6108ff338261127a565b61091b5760405162461bcd60e51b815260040161084f90611fae565b6108f08383836112f9565b600061093183610c28565b82106109935760405162461bcd60e51b815260206004820152602b60248201527f455243373231456e756d657261626c653a206f776e657220696e646578206f7560448201526a74206f6620626f756e647360a81b606482015260840161084f565b506001600160a01b03919091166000908152600660209081526040808320938352929052205490565b6109c4611153565b60006109d8600a546001600160a01b031690565b6001600160a01b03164760405160006040518083038185875af1925050503d8060008114610a22576040519150601f19603f3d011682016040523d82523d6000602084013e610a27565b606091505b5050905080610a3557600080fd5b50565b6108f083838360405180602001604052806000815250610f5a565b60606000610a6083610c28565b905060008167ffffffffffffffff811115610a7d57610a7d611dc6565b604051908082528060200260200182016040528015610aa6578160200160208202803683370190505b50905060005b82811015610aed57610abe8582610926565b828281518110610ad057610ad0611ffb565b602090810291909101015280610ae581612027565b915050610aac565b509392505050565b610afd611153565b600d55565b6000610b0d60085490565b8210610b705760405162461bcd60e51b815260206004820152602c60248201527f455243373231456e756d657261626c653a20676c6f62616c20696e646578206f60448201526b7574206f6620626f756e647360a01b606482015260840161084f565b60088281548110610b8357610b83611ffb565b90600052602060002001549050919050565b610b9d611153565b6012805460ff1916911515919091179055565b610bb8611153565b600b610bc4828261208e565b5050565b6000818152600260205260408120546001600160a01b0316806106f85760405162461bcd60e51b8152602060048201526018602482015277115490cdcc8c4e881a5b9d985b1a59081d1bdad95b88125160421b604482015260640161084f565b60006001600160a01b038216610c925760405162461bcd60e51b815260206004820152602960248201527f4552433732313a2061646472657373207a65726f206973206e6f7420612076616044820152683634b21037bbb732b960b91b606482015260840161084f565b506001600160a01b031660009081526003602052604090205490565b610cb6611153565b610cc0600061146a565b565b610cca611153565b601155565b610cd7611153565b601280549115156101000261ff0019909216919091179055565b60606001805461073190611f74565b6000610d0b60085490565b60125490915062010000900460ff1615610d2457600080fd5b60125460ff1680610d3c5750601254610100900460ff165b610d9c5760405162461bcd60e51b815260206004820152602b60248201527f4e6569746865722050726553616c65206f72205075626c6963204d696e74206860448201526a30b99039ba30b93a32b21760a91b606482015260840161084f565b601154821115610dab57600080fd5b600a546001600160a01b03163314610dd75781600d54610dcb919061214e565b341015610dd757600080fd5b60125460ff1615610e9657600f54610def8383612165565b1115610e355760405162461bcd60e51b8152602060048201526015602482015274283932a9b0b6329026b4b73a1034b99027bb32b91760591b604482015260640161084f565b60015b828111610e6457610e5233610e4d8385612165565b6114bc565b80610e5c81612027565b915050610e38565b50604051829033907f30385c845b448a36257a6a1716e6ad2e1bc2cbe333cde1e69fe849ad6511adfe90600090a35050565b601254610100900460ff1615610bc457601054610eb38383612165565b1115610ef85760405162461bcd60e51b8152602060048201526014602482015273283ab13634b19026b4b73a1034b99027bb32b91760611b604482015260640161084f565b60015b8281116108f057610f1033610e4d8385612165565b604051839033907f30385c845b448a36257a6a1716e6ad2e1bc2cbe333cde1e69fe849ad6511adfe90600090a380610f4781612027565b915050610efb565b610bc43383836114d6565b610f64338361127a565b610f805760405162461bcd60e51b815260040161084f90611fae565b610f8c848484846115a4565b50505050565b600c8054610f9f90611f74565b80601f0160208091040260200160405190810160405280929190818152602001828054610fcb90611f74565b80156110185780601f10610fed57610100808354040283529160200191611018565b820191906000526020600020905b815481529060010190602001808311610ffb57829003601f168201915b505050505081565b6060600061102c6115d7565b9050600081511161104c5760405180602001604052806000815250611072565b8083600c60405160200161106293929190612178565b6040516020818303038152906040525b9392505050565b611081611153565b600c610bc4828261208e565b611095611153565b6001600160a01b0381166110fa5760405162461bcd60e51b815260206004820152602660248201527f4f776e61626c653a206e6577206f776e657220697320746865207a65726f206160448201526564647265737360d01b606482015260840161084f565b610a358161146a565b60006001600160e01b031982166380ac58cd60e01b148061113457506001600160e01b03198216635b5e139f60e01b145b806106f857506301ffc9a760e01b6001600160e01b03198316146106f8565b600a546001600160a01b03163314610cc05760405162461bcd60e51b815260206004820181905260248201527f4f776e61626c653a2063616c6c6572206973206e6f7420746865206f776e6572604482015260640161084f565b6000818152600260205260409020546001600160a01b0316610a355760405162461bcd60e51b8152602060048201526018602482015277115490cdcc8c4e881a5b9d985b1a59081d1bdad95b88125160421b604482015260640161084f565b600081815260046020526040902080546001600160a01b0319166001600160a01b038416908117909155819061124182610bc8565b6001600160a01b03167f8c5be1e5ebec7d5bd14f71427d1e84f3dd0314c0f7b2291e5b200ac8c7c3b92560405160405180910390a45050565b60008061128683610bc8565b9050806001600160a01b0316846001600160a01b031614806112cd57506001600160a01b0380821660009081526005602090815260408083209388168352929052205460ff165b806112f15750836001600160a01b03166112e6846107b4565b6001600160a01b0316145b949350505050565b826001600160a01b031661130c82610bc8565b6001600160a01b0316146113325760405162461bcd60e51b815260040161084f90612211565b6001600160a01b0382166113945760405162461bcd60e51b8152602060048201526024808201527f4552433732313a207472616e7366657220746f20746865207a65726f206164646044820152637265737360e01b606482015260840161084f565b6113a183838360016115e6565b826001600160a01b03166113b482610bc8565b6001600160a01b0316146113da5760405162461bcd60e51b815260040161084f90612211565b600081815260046020908152604080832080546001600160a01b03199081169091556001600160a01b0387811680865260038552838620805460001901905590871680865283862080546001019055868652600290945282852080549092168417909155905184937fddf252ad1be2c89b69c2b068fc378daa952ba7f163c4a11628f55a4df523b3ef91a4505050565b600a80546001600160a01b038381166001600160a01b0319831681179093556040519116919082907f8be0079c531659141344cd1fd0a4f28419497f9722a3daafe3b4186f6b6457e090600090a35050565b610bc4828260405180602001604052806000815250611726565b816001600160a01b0316836001600160a01b0316036115375760405162461bcd60e51b815260206004820152601960248201527f4552433732313a20617070726f766520746f2063616c6c657200000000000000604482015260640161084f565b6001600160a01b03838116600081815260056020908152604080832094871680845294825291829020805460ff191686151590811790915591519182527f17307eab39ab6107e8899845ad3d59bd9653f200f220920489ca2b5937696c31910160405180910390a3505050565b6115af8484846112f9565b6115bb84848484611759565b610f8c5760405162461bcd60e51b815260040161084f90612256565b6060600b805461073190611f74565b6115f28484848461185a565b60018111156116615760405162461bcd60e51b815260206004820152603560248201527f455243373231456e756d657261626c653a20636f6e7365637574697665207472604482015274185b9cd9995c9cc81b9bdd081cdd5c1c1bdc9d1959605a1b606482015260840161084f565b816001600160a01b0385166116bd576116b881600880546000838152600960205260408120829055600182018355919091527ff3f7a9fe364faab93b216da50a3214154f22a0a2b415b23a84c8169e8b636ee30155565b6116e0565b836001600160a01b0316856001600160a01b0316146116e0576116e085826118e2565b6001600160a01b0384166116fc576116f78161197f565b61171f565b846001600160a01b0316846001600160a01b03161461171f5761171f8482611a2e565b5050505050565b6117308383611a72565b61173d6000848484611759565b6108f05760405162461bcd60e51b815260040161084f90612256565b60006001600160a01b0384163b1561184f57604051630a85bd0160e11b81526001600160a01b0385169063150b7a029061179d9033908990889088906004016122a8565b6020604051808303816000875af19250505080156117d8575060408051601f3d908101601f191682019092526117d5918101906122e5565b60015b611835573d808015611806576040519150601f19603f3d011682016040523d82523d6000602084013e61180b565b606091505b50805160000361182d5760405162461bcd60e51b815260040161084f90612256565b805181602001fd5b6001600160e01b031916630a85bd0160e11b1490506112f1565b506001949350505050565b6001811115610f8c576001600160a01b038416156118a0576001600160a01b0384166000908152600360205260408120805483929061189a908490612302565b90915550505b6001600160a01b03831615610f8c576001600160a01b038316600090815260036020526040812080548392906118d7908490612165565b909155505050505050565b600060016118ef84610c28565b6118f99190612302565b60008381526007602052604090205490915080821461194c576001600160a01b03841660009081526006602090815260408083208584528252808320548484528184208190558352600790915290208190555b5060009182526007602090815260408084208490556001600160a01b039094168352600681528383209183525290812055565b60085460009061199190600190612302565b600083815260096020526040812054600880549394509092849081106119b9576119b9611ffb565b9060005260206000200154905080600883815481106119da576119da611ffb565b6000918252602080832090910192909255828152600990915260408082208490558582528120556008805480611a1257611a12612315565b6001900381819060005260206000200160009055905550505050565b6000611a3983610c28565b6001600160a01b039093166000908152600660209081526040808320868452825280832085905593825260079052919091209190915550565b6001600160a01b038216611ac85760405162461bcd60e51b815260206004820181905260248201527f4552433732313a206d696e7420746f20746865207a65726f2061646472657373604482015260640161084f565b6000818152600260205260409020546001600160a01b031615611b2d5760405162461bcd60e51b815260206004820152601c60248201527f4552433732313a20746f6b656e20616c7265616479206d696e74656400000000604482015260640161084f565b611b3b6000838360016115e6565b6000818152600260205260409020546001600160a01b031615611ba05760405162461bcd60e51b815260206004820152601c60248201527f4552433732313a20746f6b656e20616c7265616479206d696e74656400000000604482015260640161084f565b6001600160a01b038216600081815260036020908152604080832080546001019055848352600290915280822080546001600160a01b0319168417905551839291907fddf252ad1be2c89b69c2b068fc378daa952ba7f163c4a11628f55a4df523b3ef908290a45050565b6001600160e01b031981168114610a3557600080fd5b600060208284031215611c3357600080fd5b813561107281611c0b565b80358015158114611c4e57600080fd5b919050565b600060208284031215611c6557600080fd5b61107282611c3e565b60005b83811015611c89578181015183820152602001611c71565b50506000910152565b60008151808452611caa816020860160208601611c6e565b601f01601f19169290920160200192915050565b6020815260006110726020830184611c92565b600060208284031215611ce357600080fd5b5035919050565b80356001600160a01b0381168114611c4e57600080fd5b60008060408385031215611d1457600080fd5b611d1d83611cea565b946020939093013593505050565b600080600060608486031215611d4057600080fd5b611d4984611cea565b9250611d5760208501611cea565b9150604084013590509250925092565b600060208284031215611d7957600080fd5b61107282611cea565b6020808252825182820181905260009190848201906040850190845b81811015611dba57835183529284019291840191600101611d9e565b50909695505050505050565b634e487b7160e01b600052604160045260246000fd5b600067ffffffffffffffff80841115611df757611df7611dc6565b604051601f8501601f19908116603f01168101908282118183101715611e1f57611e1f611dc6565b81604052809350858152868686011115611e3857600080fd5b858560208301376000602087830101525050509392505050565b600060208284031215611e6457600080fd5b813567ffffffffffffffff811115611e7b57600080fd5b8201601f81018413611e8c57600080fd5b6112f184823560208401611ddc565b60008060408385031215611eae57600080fd5b611eb783611cea565b9150611ec560208401611c3e565b90509250929050565b60008060008060808587031215611ee457600080fd5b611eed85611cea565b9350611efb60208601611cea565b925060408501359150606085013567ffffffffffffffff811115611f1e57600080fd5b8501601f81018713611f2f57600080fd5b611f3e87823560208401611ddc565b91505092959194509250565b60008060408385031215611f5d57600080fd5b611f6683611cea565b9150611ec560208401611cea565b600181811c90821680611f8857607f821691505b602082108103611fa857634e487b7160e01b600052602260045260246000fd5b50919050565b6020808252602d908201527f4552433732313a2063616c6c6572206973206e6f7420746f6b656e206f776e6560408201526c1c881bdc88185c1c1c9bdd9959609a1b606082015260800190565b634e487b7160e01b600052603260045260246000fd5b634e487b7160e01b600052601160045260246000fd5b60006001820161203957612039612011565b5060010190565b601f8211156108f057600081815260208120601f850160051c810160208610156120675750805b601f850160051c820191505b8181101561208657828155600101612073565b505050505050565b815167ffffffffffffffff8111156120a8576120a8611dc6565b6120bc816120b68454611f74565b84612040565b602080601f8311600181146120f157600084156120d95750858301515b600019600386901b1c1916600185901b178555612086565b600085815260208120601f198616915b8281101561212057888601518255948401946001909101908401612101565b508582101561213e5787850151600019600388901b60f8161c191681555b5050505050600190811b01905550565b80820281158282048414176106f8576106f8612011565b808201808211156106f8576106f8612011565b60008451602061218b8285838a01611c6e565b8184019150858252600085546121a081611f74565b600182811680156121b857600181146121d157612201565b60ff198416878701528215158302870186019450612201565b896000528560002060005b848110156121f75781548982018901529083019087016121dc565b5050858388010194505b50929a9950505050505050505050565b60208082526025908201527f4552433732313a207472616e736665722066726f6d20696e636f72726563742060408201526437bbb732b960d91b606082015260800190565b60208082526032908201527f4552433732313a207472616e7366657220746f206e6f6e20455243373231526560408201527131b2b4bb32b91034b6b83632b6b2b73a32b960711b606082015260800190565b6001600160a01b03858116825284166020820152604081018390526080606082018190526000906122db90830184611c92565b9695505050505050565b6000602082840312156122f757600080fd5b815161107281611c0b565b818103818111156106f8576106f8612011565b634e487b7160e01b600052603160045260246000fdfea26469706673582212200b22575a800e72dc5e4120a7f0b4cff70e22b27dd985413df92394937719dd0764736f6c63430008110033",
  "linkReferences": {},
  "deployedLinkReferences": {}
}