{
  "_format": "hh-sol-artifact-1",
  "contractName": "Termyt",
  "sourceName": "contracts/Termyt.sol",
  "abi": [
    {
      "inputs": [
        {
          "internalType": "string",
          "name": "_name",
          "type": "string"
        },
        {
          "internalType": "string",
          "name": "_symbol",
          "type": "string"
        },
        {
          "internalType": "string",
          "name": "initBaseURI",
          "type": "string"
        }
      ],
      "stateMutability": "nonpayable",
      "type": "constructor"
    },
    {
      "anonymous": false,
      "inputs": [
        {
          "indexed": true,
          "internalType": "address",
          "name": "owner",
          "type": "address"
        },
        {
          "indexed": true,
          "internalType": "address",
          "name": "approved",
          "type": "address"
        },
        {
          "indexed": true,
          "internalType": "uint256",
          "name": "tokenId",
          "type": "uint256"
        }
      ],
      "name": "Approval",
      "type": "event"
    },
    {
      "anonymous": false,
      "inputs": [
        {
          "indexed": true,
          "internalType": "address",
          "name": "owner",
          "type": "address"
        },
        {
          "indexed": true,
          "internalType": "address",
          "name": "operator",
          "type": "address"
        },
        {
          "indexed": false,
          "internalType": "bool",
          "name": "approved",
          "type": "bool"
        }
      ],
      "name": "ApprovalForAll",
      "type": "event"
    },
    {
      "anonymous": false,
      "inputs": [
        {
          "indexed": true,
          "internalType": "address",
          "name": "owner",
          "type": "address"
        },
        {
          "indexed": true,
          "internalType": "uint256",
          "name": "amount",
          "type": "uint256"
        }
      ],
      "name": "Minted",
      "type": "event"
    },
    {
      "anonymous": false,
      "inputs": [
        {
          "indexed": true,
          "internalType": "address",
          "name": "previousOwner",
          "type": "address"
        },
        {
          "indexed": true,
          "internalType": "address",
          "name": "newOwner",
          "type": "address"
        }
      ],
      "name": "OwnershipTransferred",
      "type": "event"
    },
    {
      "anonymous": false,
      "inputs": [
        {
          "indexed": true,
          "internalType": "address",
          "name": "from",
          "type": "address"
        },
        {
          "indexed": true,
          "internalType": "address",
          "name": "to",
          "type": "address"
        },
        {
          "indexed": true,
          "internalType": "uint256",
          "name": "tokenId",
          "type": "uint256"
        }
      ],
      "name": "Transfer",
      "type": "event"
    },
    {
      "inputs": [
        {
          "internalType": "address",
          "name": "to",
          "type": "address"
        },
        {
          "internalType": "uint256",
          "name": "tokenId",
          "type": "uint256"
        }
      ],
      "name": "approve",
      "outputs": [],
      "stateMutability": "nonpayable",
      "type": "function"
    },
    {
      "inputs": [
        {
          "internalType": "address",
          "name": "owner",
          "type": "address"
        }
      ],
      "name": "balanceOf",
      "outputs": [
        {
          "internalType": "uint256",
          "name": "",
          "type": "uint256"
        }
      ],
      "stateMutability": "view",
      "type": "function"
    },
    {
      "inputs": [],
      "name": "baseExtension",
      "outputs": [
        {
          "internalType": "string",
          "name": "",
          "type": "string"
        }
      ],
      "stateMutability": "view",
      "type": "function"
    },
    {
      "inputs": [],
      "name": "cost",
      "outputs": [
        {
          "internalType": "uint256",
          "name": "",
          "type": "uint256"
        }
      ],
      "stateMutability": "view",
      "type": "function"
    },
    {
      "inputs": [
        {
          "internalType": "uint256",
          "name": "tokenId",
          "type": "uint256"
        }
      ],
      "name": "getApproved",
      "outputs": [
        {
          "internalType": "address",
          "name": "",
          "type": "address"
        }
      ],
      "stateMutability": "view",
      "type": "function"
    },
    {
      "inputs": [
        {
          "internalType": "address",
          "name": "owner",
          "type": "address"
        },
        {
          "internalType": "address",
          "name": "operator",
          "type": "address"
        }
      ],
      "name": "isApprovedForAll",
      "outputs": [
        {
          "internalType": "bool",
          "name": "",
          "type": "bool"
        }
      ],
      "stateMutability": "view",
      "type": "function"
    },
    {
      "inputs": [],
      "name": "maxMintAmount",
      "outputs": [
        {
          "internalType": "uint256",
          "name": "",
          "type": "uint256"
        }
      ],
      "stateMutability": "view",
      "type": "function"
    },
    {
      "inputs": [],
      "name": "maxSupply",
      "outputs": [
        {
          "internalType": "uint256",
          "name": "",
          "type": "uint256"
        }
      ],
      "stateMutability": "view",
      "type": "function"
    },
    {
      "inputs": [
        {
          "internalType": "uint256",
          "name": "_mintAmount",
          "type": "uint256"
        }
      ],
      "name": "mint",
      "outputs": [],
      "stateMutability": "payable",
      "type": "function"
    },
    {
      "inputs": [],
      "name": "name",
      "outputs": [
        {
          "internalType": "string",
          "name": "",
          "type": "string"
        }
      ],
      "stateMutability": "view",
      "type": "function"
    },
    {
      "inputs": [],
      "name": "owner",
      "outputs": [
        {
          "internalType": "address",
          "name": "",
          "type": "address"
        }
      ],
      "stateMutability": "view",
      "type": "function"
    },
    {
      "inputs": [
        {
          "internalType": "uint256",
          "name": "tokenId",
          "type": "uint256"
        }
      ],
      "name": "ownerOf",
      "outputs": [
        {
          "internalType": "address",
          "name": "",
          "type": "address"
        }
      ],
      "stateMutability": "view",
      "type": "function"
    },
    {
      "inputs": [
        {
          "internalType": "bool",
          "name": "_state",
          "type": "bool"
        }
      ],
      "name": "pause",
      "outputs": [],
      "stateMutability": "nonpayable",
      "type": "function"
    },
    {
      "inputs": [],
      "name": "paused",
      "outputs": [
        {
          "internalType": "bool",
          "name": "",
          "type": "bool"
        }
      ],
      "stateMutability": "view",
      "type": "function"
    },
    {
      "inputs": [],
      "name": "renounceOwnership",
      "outputs": [],
      "stateMutability": "nonpayable",
      "type": "function"
    },
    {
      "inputs": [
        {
          "internalType": "address",
          "name": "from",
          "type": "address"
        },
        {
          "internalType": "address",
          "name": "to",
          "type": "address"
        },
        {
          "internalType": "uint256",
          "name": "tokenId",
          "type": "uint256"
        }
      ],
      "name": "safeTransferFrom",
      "outputs": [],
      "stateMutability": "nonpayable",
      "type": "function"
    },
    {
      "inputs": [
        {
          "internalType": "address",
          "name": "from",
          "type": "address"
        },
        {
          "internalType": "address",
          "name": "to",
          "type": "address"
        },
        {
          "internalType": "uint256",
          "name": "tokenId",
          "type": "uint256"
        },
        {
          "internalType": "bytes",
          "name": "data",
          "type": "bytes"
        }
      ],
      "name": "safeTransferFrom",
      "outputs": [],
      "stateMutability": "nonpayable",
      "type": "function"
    },
    {
      "inputs": [
        {
          "internalType": "address",
          "name": "operator",
          "type": "address"
        },
        {
          "internalType": "bool",
          "name": "approved",
          "type": "bool"
        }
      ],
      "name": "setApprovalForAll",
      "outputs": [],
      "stateMutability": "nonpayable",
      "type": "function"
    },
    {
      "inputs": [
        {
          "internalType": "string",
          "name": "_newBaseExtension",
          "type": "string"
        }
      ],
      "name": "setBaseExtension",
      "outputs": [],
      "stateMutability": "nonpayable",
      "type": "function"
    },
    {
      "inputs": [
        {
          "internalType": "string",
          "name": "_newBaseURI",
          "type": "string"
        }
      ],
      "name": "setBaseURI",
      "outputs": [],
      "stateMutability": "nonpayable",
      "type": "function"
    },
    {
      "inputs": [
        {
          "internalType": "uint256",
          "name": "_newCost",
          "type": "uint256"
        }
      ],
      "name": "setCost",
      "outputs": [],
      "stateMutability": "nonpayable",
      "type": "function"
    },
    {
      "inputs": [
        {
          "internalType": "uint256",
          "name": "_newmaxMintAmount",
          "type": "uint256"
        }
      ],
      "name": "setmaxMintAmount",
      "outputs": [],
      "stateMutability": "nonpayable",
      "type": "function"
    },
    {
      "inputs": [
        {
          "internalType": "bytes4",
          "name": "interfaceId",
          "type": "bytes4"
        }
      ],
      "name": "supportsInterface",
      "outputs": [
        {
          "internalType": "bool",
          "name": "",
          "type": "bool"
        }
      ],
      "stateMutability": "view",
      "type": "function"
    },
    {
      "inputs": [],
      "name": "symbol",
      "outputs": [
        {
          "internalType": "string",
          "name": "",
          "type": "string"
        }
      ],
      "stateMutability": "view",
      "type": "function"
    },
    {
      "inputs": [
        {
          "internalType": "uint256",
          "name": "index",
          "type": "uint256"
        }
      ],
      "name": "tokenByIndex",
      "outputs": [
        {
          "internalType": "uint256",
          "name": "",
          "type": "uint256"
        }
      ],
      "stateMutability": "view",
      "type": "function"
    },
    {
      "inputs": [
        {
          "internalType": "address",
          "name": "owner",
          "type": "address"
        },
        {
          "internalType": "uint256",
          "name": "index",
          "type": "uint256"
        }
      ],
      "name": "tokenOfOwnerByIndex",
      "outputs": [
        {
          "internalType": "uint256",
          "name": "",
          "type": "uint256"
        }
      ],
      "stateMutability": "view",
      "type": "function"
    },
    {
      "inputs": [
        {
          "internalType": "uint256",
          "name": "tokenId",
          "type": "uint256"
        }
      ],
      "name": "tokenURI",
      "outputs": [
        {
          "internalType": "string",
          "name": "",
          "type": "string"
        }
      ],
      "stateMutability": "view",
      "type": "function"
    },
    {
      "inputs": [],
      "name": "totalSupply",
      "outputs": [
        {
          "internalType": "uint256",
          "name": "",
          "type": "uint256"
        }
      ],
      "stateMutability": "view",
      "type": "function"
    },
    {
      "inputs": [
        {
          "internalType": "address",
          "name": "from",
          "type": "address"
        },
        {
          "internalType": "address",
          "name": "to",
          "type": "address"
        },
        {
          "internalType": "uint256",
          "name": "tokenId",
          "type": "uint256"
        }
      ],
      "name": "transferFrom",
      "outputs": [],
      "stateMutability": "nonpayable",
      "type": "function"
    },
    {
      "inputs": [
        {
          "internalType": "address",
          "name": "newOwner",
          "type": "address"
        }
      ],
      "name": "transferOwnership",
      "outputs": [],
      "stateMutability": "nonpayable",
      "type": "function"
    },
    {
      "inputs": [
        {
          "internalType": "address",
          "name": "_owner",
          "type": "address"
        }
      ],
      "name": "walletOfOwner",
      "outputs": [
        {
          "internalType": "uint256[]",
          "name": "",
          "type": "uint256[]"
        }
      ],
      "stateMutability": "view",
      "type": "function"
    },
    {
      "inputs": [],
      "name": "withdraw",
      "outputs": [],
      "stateMutability": "payable",
      "type": "function"
    }
  ],
  "bytecode": "0x60c06040526005608090815264173539b7b760d91b60a052600c9062000026908262000240565b50670de0b6b3a7640000600d55611388600e556005600f556010805460ff191690553480156200005557600080fd5b506040516200270d3803806200270d8339810160408190526200007891620003bb565b8282600062000088838262000240565b50600162000097828262000240565b505050620000b4620000ae620000c860201b60201c565b620000cc565b620000bf816200011e565b5050506200044c565b3390565b600a80546001600160a01b038381166001600160a01b0319831681179093556040519116919082907f8be0079c531659141344cd1fd0a4f28419497f9722a3daafe3b4186f6b6457e090600090a35050565b620001286200013a565b600b62000136828262000240565b5050565b600a546001600160a01b03163314620001995760405162461bcd60e51b815260206004820181905260248201527f4f776e61626c653a2063616c6c6572206973206e6f7420746865206f776e6572604482015260640160405180910390fd5b565b634e487b7160e01b600052604160045260246000fd5b600181811c90821680620001c657607f821691505b602082108103620001e757634e487b7160e01b600052602260045260246000fd5b50919050565b601f8211156200023b57600081815260208120601f850160051c81016020861015620002165750805b601f850160051c820191505b81811015620002375782815560010162000222565b5050505b505050565b81516001600160401b038111156200025c576200025c6200019b565b62000274816200026d8454620001b1565b84620001ed565b602080601f831160018114620002ac5760008415620002935750858301515b600019600386901b1c1916600185901b17855562000237565b600085815260208120601f198616915b82811015620002dd57888601518255948401946001909101908401620002bc565b5085821015620002fc5787850151600019600388901b60f8161c191681555b5050505050600190811b01905550565b600082601f8301126200031e57600080fd5b81516001600160401b03808211156200033b576200033b6200019b565b604051601f8301601f19908116603f011681019082821181831017156200036657620003666200019b565b816040528381526020925086838588010111156200038357600080fd5b600091505b83821015620003a7578582018301518183018401529082019062000388565b600093810190920192909252949350505050565b600080600060608486031215620003d157600080fd5b83516001600160401b0380821115620003e957600080fd5b620003f7878388016200030c565b945060208601519150808211156200040e57600080fd5b6200041c878388016200030c565b935060408601519150808211156200043357600080fd5b5062000442868287016200030c565b9150509250925092565b6122b1806200045c6000396000f3fe6080604052600436106101e35760003560e01c80635c975abb11610102578063a22cb46511610095578063d5abeb0111610064578063d5abeb0114610547578063da3ef23f1461055d578063e985e9c51461057d578063f2fde38b146105c657600080fd5b8063a22cb465146104d2578063b88d4fde146104f2578063c668286214610512578063c87b56dd1461052757600080fd5b80637f00c7a6116100d15780637f00c7a61461046c5780638da5cb5b1461048c57806395d89b41146104aa578063a0712d68146104bf57600080fd5b80635c975abb146103fd5780636352211e1461041757806370a0823114610437578063715018a61461045757600080fd5b806323b872dd1161017a578063438b630011610149578063438b63001461037057806344a0d68a1461039d5780634f6ccce7146103bd57806355f804b3146103dd57600080fd5b806323b872dd146103085780632f745c59146103285780633ccfd60b1461034857806342842e0e1461035057600080fd5b8063095ea7b3116101b6578063095ea7b31461029957806313faede6146102b957806318160ddd146102dd578063239c70ae146102f257600080fd5b806301ffc9a7146101e857806302329a291461021d57806306fdde031461023f578063081812fc14610261575b600080fd5b3480156101f457600080fd5b50610208610203366004611b6a565b6105e6565b60405190151581526020015b60405180910390f35b34801561022957600080fd5b5061023d610238366004611b9c565b610611565b005b34801561024b57600080fd5b5061025461062c565b6040516102149190611c07565b34801561026d57600080fd5b5061028161027c366004611c1a565b6106be565b6040516001600160a01b039091168152602001610214565b3480156102a557600080fd5b5061023d6102b4366004611c4a565b6106e5565b3480156102c557600080fd5b506102cf600d5481565b604051908152602001610214565b3480156102e957600080fd5b506008546102cf565b3480156102fe57600080fd5b506102cf600f5481565b34801561031457600080fd5b5061023d610323366004611c74565b6107ff565b34801561033457600080fd5b506102cf610343366004611c4a565b610830565b61023d6108c6565b34801561035c57600080fd5b5061023d61036b366004611c74565b610942565b34801561037c57600080fd5b5061039061038b366004611cb0565b61095d565b6040516102149190611ccb565b3480156103a957600080fd5b5061023d6103b8366004611c1a565b6109ff565b3480156103c957600080fd5b506102cf6103d8366004611c1a565b610a0c565b3480156103e957600080fd5b5061023d6103f8366004611d9b565b610a9f565b34801561040957600080fd5b506010546102089060ff1681565b34801561042357600080fd5b50610281610432366004611c1a565b610ab7565b34801561044357600080fd5b506102cf610452366004611cb0565b610b17565b34801561046357600080fd5b5061023d610b9d565b34801561047857600080fd5b5061023d610487366004611c1a565b610bb1565b34801561049857600080fd5b50600a546001600160a01b0316610281565b3480156104b657600080fd5b50610254610bbe565b61023d6104cd366004611c1a565b610bcd565b3480156104de57600080fd5b5061023d6104ed366004611de4565b610d25565b3480156104fe57600080fd5b5061023d61050d366004611e17565b610d30565b34801561051e57600080fd5b50610254610d68565b34801561053357600080fd5b50610254610542366004611c1a565b610df6565b34801561055357600080fd5b506102cf600e5481565b34801561056957600080fd5b5061023d610578366004611d9b565b610e57565b34801561058957600080fd5b50610208610598366004611e93565b6001600160a01b03918216600090815260056020908152604080832093909416825291909152205460ff1690565b3480156105d257600080fd5b5061023d6105e1366004611cb0565b610e6b565b60006001600160e01b0319821663780e9d6360e01b148061060b575061060b82610ee1565b92915050565b610619610f31565b6010805460ff1916911515919091179055565b60606000805461063b90611ebd565b80601f016020809104026020016040519081016040528092919081815260200182805461066790611ebd565b80156106b45780601f10610689576101008083540402835291602001916106b4565b820191906000526020600020905b81548152906001019060200180831161069757829003601f168201915b5050505050905090565b60006106c982610f8b565b506000908152600460205260409020546001600160a01b031690565b60006106f082610ab7565b9050806001600160a01b0316836001600160a01b0316036107625760405162461bcd60e51b815260206004820152602160248201527f4552433732313a20617070726f76616c20746f2063757272656e74206f776e656044820152603960f91b60648201526084015b60405180910390fd5b336001600160a01b038216148061077e575061077e8133610598565b6107f05760405162461bcd60e51b815260206004820152603d60248201527f4552433732313a20617070726f76652063616c6c6572206973206e6f7420746f60448201527f6b656e206f776e6572206f7220617070726f76656420666f7220616c6c0000006064820152608401610759565b6107fa8383610fea565b505050565b6108093382611058565b6108255760405162461bcd60e51b815260040161075990611ef7565b6107fa8383836110d7565b600061083b83610b17565b821061089d5760405162461bcd60e51b815260206004820152602b60248201527f455243373231456e756d657261626c653a206f776e657220696e646578206f7560448201526a74206f6620626f756e647360a81b6064820152608401610759565b506001600160a01b03919091166000908152600660209081526040808320938352929052205490565b6108ce610f31565b60006108e2600a546001600160a01b031690565b6001600160a01b03164760405160006040518083038185875af1925050503d806000811461092c576040519150601f19603f3d011682016040523d82523d6000602084013e610931565b606091505b505090508061093f57600080fd5b50565b6107fa83838360405180602001604052806000815250610d30565b6060600061096a83610b17565b905060008167ffffffffffffffff81111561098757610987611d0f565b6040519080825280602002602001820160405280156109b0578160200160208202803683370190505b50905060005b828110156109f7576109c88582610830565b8282815181106109da576109da611f44565b6020908102919091010152806109ef81611f70565b9150506109b6565b509392505050565b610a07610f31565b600d55565b6000610a1760085490565b8210610a7a5760405162461bcd60e51b815260206004820152602c60248201527f455243373231456e756d657261626c653a20676c6f62616c20696e646578206f60448201526b7574206f6620626f756e647360a01b6064820152608401610759565b60088281548110610a8d57610a8d611f44565b90600052602060002001549050919050565b610aa7610f31565b600b610ab38282611fd7565b5050565b6000818152600260205260408120546001600160a01b03168061060b5760405162461bcd60e51b8152602060048201526018602482015277115490cdcc8c4e881a5b9d985b1a59081d1bdad95b88125160421b6044820152606401610759565b60006001600160a01b038216610b815760405162461bcd60e51b815260206004820152602960248201527f4552433732313a2061646472657373207a65726f206973206e6f7420612076616044820152683634b21037bbb732b960b91b6064820152608401610759565b506001600160a01b031660009081526003602052604090205490565b610ba5610f31565b610baf6000611248565b565b610bb9610f31565b600f55565b60606001805461063b90611ebd565b6000610bd860085490565b60105490915060ff1615610beb57600080fd5b600f54821115610c3d5760405162461bcd60e51b815260206004820152601b60248201527f43616e6e6f74206d696e74206d6f7265207468616e20666976652e00000000006044820152606401610759565b600f54610c493361095d565b511115610c985760405162461bcd60e51b815260206004820152601b60248201527f43616e6e6f74206d696e74206d6f7265207468616e20666976652e00000000006044820152606401610759565b600a546001600160a01b03163314610cc45781600d54610cb89190612097565b341015610cc457600080fd5b60015b828111610cf357610ce133610cdc83856120ae565b61129a565b80610ceb81611f70565b915050610cc7565b50604051829033907f30385c845b448a36257a6a1716e6ad2e1bc2cbe333cde1e69fe849ad6511adfe90600090a35050565b610ab33383836112b4565b610d3a3383611058565b610d565760405162461bcd60e51b815260040161075990611ef7565b610d6284848484611382565b50505050565b600c8054610d7590611ebd565b80601f0160208091040260200160405190810160405280929190818152602001828054610da190611ebd565b8015610dee5780601f10610dc357610100808354040283529160200191610dee565b820191906000526020600020905b815481529060010190602001808311610dd157829003601f168201915b505050505081565b60606000610e026113b5565b90506000815111610e225760405180602001604052806000815250610e50565b80610e2c846113c4565b600c604051602001610e40939291906120c1565b6040516020818303038152906040525b9392505050565b610e5f610f31565b600c610ab38282611fd7565b610e73610f31565b6001600160a01b038116610ed85760405162461bcd60e51b815260206004820152602660248201527f4f776e61626c653a206e6577206f776e657220697320746865207a65726f206160448201526564647265737360d01b6064820152608401610759565b61093f81611248565b60006001600160e01b031982166380ac58cd60e01b1480610f1257506001600160e01b03198216635b5e139f60e01b145b8061060b57506301ffc9a760e01b6001600160e01b031983161461060b565b600a546001600160a01b03163314610baf5760405162461bcd60e51b815260206004820181905260248201527f4f776e61626c653a2063616c6c6572206973206e6f7420746865206f776e65726044820152606401610759565b6000818152600260205260409020546001600160a01b031661093f5760405162461bcd60e51b8152602060048201526018602482015277115490cdcc8c4e881a5b9d985b1a59081d1bdad95b88125160421b6044820152606401610759565b600081815260046020526040902080546001600160a01b0319166001600160a01b038416908117909155819061101f82610ab7565b6001600160a01b03167f8c5be1e5ebec7d5bd14f71427d1e84f3dd0314c0f7b2291e5b200ac8c7c3b92560405160405180910390a45050565b60008061106483610ab7565b9050806001600160a01b0316846001600160a01b031614806110ab57506001600160a01b0380821660009081526005602090815260408083209388168352929052205460ff165b806110cf5750836001600160a01b03166110c4846106be565b6001600160a01b0316145b949350505050565b826001600160a01b03166110ea82610ab7565b6001600160a01b0316146111105760405162461bcd60e51b815260040161075990612161565b6001600160a01b0382166111725760405162461bcd60e51b8152602060048201526024808201527f4552433732313a207472616e7366657220746f20746865207a65726f206164646044820152637265737360e01b6064820152608401610759565b61117f8383836001611457565b826001600160a01b031661119282610ab7565b6001600160a01b0316146111b85760405162461bcd60e51b815260040161075990612161565b600081815260046020908152604080832080546001600160a01b03199081169091556001600160a01b0387811680865260038552838620805460001901905590871680865283862080546001019055868652600290945282852080549092168417909155905184937fddf252ad1be2c89b69c2b068fc378daa952ba7f163c4a11628f55a4df523b3ef91a4505050565b600a80546001600160a01b038381166001600160a01b0319831681179093556040519116919082907f8be0079c531659141344cd1fd0a4f28419497f9722a3daafe3b4186f6b6457e090600090a35050565b610ab3828260405180602001604052806000815250611597565b816001600160a01b0316836001600160a01b0316036113155760405162461bcd60e51b815260206004820152601960248201527f4552433732313a20617070726f766520746f2063616c6c6572000000000000006044820152606401610759565b6001600160a01b03838116600081815260056020908152604080832094871680845294825291829020805460ff191686151590811790915591519182527f17307eab39ab6107e8899845ad3d59bd9653f200f220920489ca2b5937696c31910160405180910390a3505050565b61138d8484846110d7565b611399848484846115ca565b610d625760405162461bcd60e51b8152600401610759906121a6565b6060600b805461063b90611ebd565b606060006113d1836116cb565b600101905060008167ffffffffffffffff8111156113f1576113f1611d0f565b6040519080825280601f01601f19166020018201604052801561141b576020820181803683370190505b5090508181016020015b600019016f181899199a1a9b1b9c1cb0b131b232b360811b600a86061a8153600a850494508461142557509392505050565b611463848484846117a3565b60018111156114d25760405162461bcd60e51b815260206004820152603560248201527f455243373231456e756d657261626c653a20636f6e7365637574697665207472604482015274185b9cd9995c9cc81b9bdd081cdd5c1c1bdc9d1959605a1b6064820152608401610759565b816001600160a01b03851661152e5761152981600880546000838152600960205260408120829055600182018355919091527ff3f7a9fe364faab93b216da50a3214154f22a0a2b415b23a84c8169e8b636ee30155565b611551565b836001600160a01b0316856001600160a01b03161461155157611551858261182b565b6001600160a01b03841661156d57611568816118c8565b611590565b846001600160a01b0316846001600160a01b031614611590576115908482611977565b5050505050565b6115a183836119bb565b6115ae60008484846115ca565b6107fa5760405162461bcd60e51b8152600401610759906121a6565b60006001600160a01b0384163b156116c057604051630a85bd0160e11b81526001600160a01b0385169063150b7a029061160e9033908990889088906004016121f8565b6020604051808303816000875af1925050508015611649575060408051601f3d908101601f1916820190925261164691810190612235565b60015b6116a6573d808015611677576040519150601f19603f3d011682016040523d82523d6000602084013e61167c565b606091505b50805160000361169e5760405162461bcd60e51b8152600401610759906121a6565b805181602001fd5b6001600160e01b031916630a85bd0160e11b1490506110cf565b506001949350505050565b60008072184f03e93ff9f4daa797ed6e38ed64bf6a1f0160401b831061170a5772184f03e93ff9f4daa797ed6e38ed64bf6a1f0160401b830492506040015b6d04ee2d6d415b85acef81000000008310611736576d04ee2d6d415b85acef8100000000830492506020015b662386f26fc10000831061175457662386f26fc10000830492506010015b6305f5e100831061176c576305f5e100830492506008015b612710831061178057612710830492506004015b60648310611792576064830492506002015b600a831061060b5760010192915050565b6001811115610d62576001600160a01b038416156117e9576001600160a01b038416600090815260036020526040812080548392906117e3908490612252565b90915550505b6001600160a01b03831615610d62576001600160a01b038316600090815260036020526040812080548392906118209084906120ae565b909155505050505050565b6000600161183884610b17565b6118429190612252565b600083815260076020526040902054909150808214611895576001600160a01b03841660009081526006602090815260408083208584528252808320548484528184208190558352600790915290208190555b5060009182526007602090815260408084208490556001600160a01b039094168352600681528383209183525290812055565b6008546000906118da90600190612252565b6000838152600960205260408120546008805493945090928490811061190257611902611f44565b90600052602060002001549050806008838154811061192357611923611f44565b600091825260208083209091019290925582815260099091526040808220849055858252812055600880548061195b5761195b612265565b6001900381819060005260206000200160009055905550505050565b600061198283610b17565b6001600160a01b039093166000908152600660209081526040808320868452825280832085905593825260079052919091209190915550565b6001600160a01b038216611a115760405162461bcd60e51b815260206004820181905260248201527f4552433732313a206d696e7420746f20746865207a65726f20616464726573736044820152606401610759565b6000818152600260205260409020546001600160a01b031615611a765760405162461bcd60e51b815260206004820152601c60248201527f4552433732313a20746f6b656e20616c7265616479206d696e746564000000006044820152606401610759565b611a84600083836001611457565b6000818152600260205260409020546001600160a01b031615611ae95760405162461bcd60e51b815260206004820152601c60248201527f4552433732313a20746f6b656e20616c7265616479206d696e746564000000006044820152606401610759565b6001600160a01b038216600081815260036020908152604080832080546001019055848352600290915280822080546001600160a01b0319168417905551839291907fddf252ad1be2c89b69c2b068fc378daa952ba7f163c4a11628f55a4df523b3ef908290a45050565b6001600160e01b03198116811461093f57600080fd5b600060208284031215611b7c57600080fd5b8135610e5081611b54565b80358015158114611b9757600080fd5b919050565b600060208284031215611bae57600080fd5b610e5082611b87565b60005b83811015611bd2578181015183820152602001611bba565b50506000910152565b60008151808452611bf3816020860160208601611bb7565b601f01601f19169290920160200192915050565b602081526000610e506020830184611bdb565b600060208284031215611c2c57600080fd5b5035919050565b80356001600160a01b0381168114611b9757600080fd5b60008060408385031215611c5d57600080fd5b611c6683611c33565b946020939093013593505050565b600080600060608486031215611c8957600080fd5b611c9284611c33565b9250611ca060208501611c33565b9150604084013590509250925092565b600060208284031215611cc257600080fd5b610e5082611c33565b6020808252825182820181905260009190848201906040850190845b81811015611d0357835183529284019291840191600101611ce7565b50909695505050505050565b634e487b7160e01b600052604160045260246000fd5b600067ffffffffffffffff80841115611d4057611d40611d0f565b604051601f8501601f19908116603f01168101908282118183101715611d6857611d68611d0f565b81604052809350858152868686011115611d8157600080fd5b858560208301376000602087830101525050509392505050565b600060208284031215611dad57600080fd5b813567ffffffffffffffff811115611dc457600080fd5b8201601f81018413611dd557600080fd5b6110cf84823560208401611d25565b60008060408385031215611df757600080fd5b611e0083611c33565b9150611e0e60208401611b87565b90509250929050565b60008060008060808587031215611e2d57600080fd5b611e3685611c33565b9350611e4460208601611c33565b925060408501359150606085013567ffffffffffffffff811115611e6757600080fd5b8501601f81018713611e7857600080fd5b611e8787823560208401611d25565b91505092959194509250565b60008060408385031215611ea657600080fd5b611eaf83611c33565b9150611e0e60208401611c33565b600181811c90821680611ed157607f821691505b602082108103611ef157634e487b7160e01b600052602260045260246000fd5b50919050565b6020808252602d908201527f4552433732313a2063616c6c6572206973206e6f7420746f6b656e206f776e6560408201526c1c881bdc88185c1c1c9bdd9959609a1b606082015260800190565b634e487b7160e01b600052603260045260246000fd5b634e487b7160e01b600052601160045260246000fd5b600060018201611f8257611f82611f5a565b5060010190565b601f8211156107fa57600081815260208120601f850160051c81016020861015611fb05750805b601f850160051c820191505b81811015611fcf57828155600101611fbc565b505050505050565b815167ffffffffffffffff811115611ff157611ff1611d0f565b61200581611fff8454611ebd565b84611f89565b602080601f83116001811461203a57600084156120225750858301515b600019600386901b1c1916600185901b178555611fcf565b600085815260208120601f198616915b828110156120695788860151825594840194600190910190840161204a565b50858210156120875787850151600019600388901b60f8161c191681555b5050505050600190811b01905550565b808202811582820484141761060b5761060b611f5a565b8082018082111561060b5761060b611f5a565b6000845160206120d48285838a01611bb7565b8551918401916120e78184848a01611bb7565b85549201916000906120f881611ebd565b60018281168015612110576001811461212557612151565b60ff1984168752821515830287019450612151565b896000528560002060005b8481101561214957815489820152908301908701612130565b505082870194505b50929a9950505050505050505050565b60208082526025908201527f4552433732313a207472616e736665722066726f6d20696e636f72726563742060408201526437bbb732b960d91b606082015260800190565b60208082526032908201527f4552433732313a207472616e7366657220746f206e6f6e20455243373231526560408201527131b2b4bb32b91034b6b83632b6b2b73a32b960711b606082015260800190565b6001600160a01b038581168252841660208201526040810183905260806060820181905260009061222b90830184611bdb565b9695505050505050565b60006020828403121561224757600080fd5b8151610e5081611b54565b8181038181111561060b5761060b611f5a565b634e487b7160e01b600052603160045260246000fdfea2646970667358221220e3ba24f63f039b5aa18eff36b04090579ce89fad8f40f369c442efe8d31a6c9f64736f6c63430008110033",
  "linkReferences": {},
  "deployedLinkReferences": {}
}