{
  "_format": "hh-sol-artifact-1",
  "contractName": "Whitelist",
  "sourceName": "contracts/Whitelist.sol",
  "abi": [
    {
      "inputs": [
        {
          "internalType": "string",
          "name": "_baseURL",
          "type": "string"
        }
      ],
      "stateMutability": "nonpayable",
      "type": "constructor"
    },
    {
      "anonymous": false,
      "inputs": [
        {
          "indexed": true,
          "internalType": "address",
          "name": "user",
          "type": "address"
        },
        {
          "indexed": true,
          "internalType": "uint256",
          "name": "referrals",
          "type": "uint256"
        }
      ],
      "name": "Referral",
      "type": "event"
    },
    {
      "anonymous": false,
      "inputs": [
        {
          "indexed": true,
          "internalType": "address",
          "name": "user",
          "type": "address"
        },
        {
          "indexed": true,
          "internalType": "uint256",
          "name": "amount",
          "type": "uint256"
        }
      ],
      "name": "Whitelisted",
      "type": "event"
    },
    {
      "inputs": [
        {
          "internalType": "string",
          "name": "ID",
          "type": "string"
        }
      ],
      "name": "referral",
      "outputs": [],
      "stateMutability": "nonpayable",
      "type": "function"
    },
    {
      "inputs": [
        {
          "internalType": "string",
          "name": "ID",
          "type": "string"
        },
        {
          "internalType": "uint256",
          "name": "_amount",
          "type": "uint256"
        }
      ],
      "name": "whitelist",
      "outputs": [],
      "stateMutability": "nonpayable",
      "type": "function"
    },
    {
      "inputs": [
        {
          "internalType": "string",
          "name": "",
          "type": "string"
        }
      ],
      "name": "whitelisted",
      "outputs": [
        {
          "internalType": "address",
          "name": "user",
          "type": "address"
        },
        {
          "internalType": "uint256",
          "name": "amount",
          "type": "uint256"
        },
        {
          "internalType": "uint256",
          "name": "referrals",
          "type": "uint256"
        },
        {
          "internalType": "bool",
          "name": "whitelisted",
          "type": "bool"
        }
      ],
      "stateMutability": "view",
      "type": "function"
    }
  ],
  "bytecode": "0x608060405234801561001057600080fd5b5060405161072c38038061072c83398101604081905261002f91610058565b600061003b82826101aa565b5050610269565b634e487b7160e01b600052604160045260246000fd5b6000602080838503121561006b57600080fd5b82516001600160401b038082111561008257600080fd5b818501915085601f83011261009657600080fd5b8151818111156100a8576100a8610042565b604051601f8201601f19908116603f011681019083821181831017156100d0576100d0610042565b8160405282815288868487010111156100e857600080fd5b600093505b8284101561010a57848401860151818501870152928501926100ed565b600086848301015280965050505050505092915050565b600181811c9082168061013557607f821691505b60208210810361015557634e487b7160e01b600052602260045260246000fd5b50919050565b601f8211156101a557600081815260208120601f850160051c810160208610156101825750805b601f850160051c820191505b818110156101a15782815560010161018e565b5050505b505050565b81516001600160401b038111156101c3576101c3610042565b6101d7816101d18454610121565b8461015b565b602080601f83116001811461020c57600084156101f45750858301515b600019600386901b1c1916600185901b1785556101a1565b600085815260208120601f198616915b8281101561023b5788860151825594840194600190910190840161021c565b50858210156102595787850151600019600388901b60f8161c191681555b5050505050600190811b01905550565b6104b4806102786000396000f3fe608060405234801561001057600080fd5b50600436106100415760003560e01c806314f2f34914610046578063654ad8a71461005b5780636909818e146100dc575b600080fd5b6100596100543660046103a6565b6100ef565b005b6100ac6100693660046103eb565b80516020818301810180516001808352938301929094019190912092905281549082015460028301546003909301546001600160a01b0390921692909160ff1684565b604080516001600160a01b0390951685526020850193909352918301521515606082015260800160405180910390f35b6100596100ea3660046103eb565b610219565b6001826040516100ff9190610428565b9081526040519081900360200190206003015460ff161561015d5760405162461bcd60e51b8152602060048201526013602482015272105b1c9958591e481dda1a5d195b1a5cdd1959606a1b60448201526064015b60405180910390fd5b6040805160808101825233815260208101839052600081830152600160608201819052915190918291610191908690610428565b9081526040805160209281900383018120845181546001600160a01b0319166001600160a01b039091161781559284015160018401559083015160028301556060909201516003909101805460ff1916911515919091179055829033907f6ea640312e182de387819fbeb13be00db3171a445412852248559054871c419990600090a3505050565b6001816040516102299190610428565b9081526040519081900360200190206003015460ff1661027d5760405162461bcd60e51b815260206004820152600f60248201526e139bdd081dda1a5d195b1a5cdd1959608a1b6044820152606401610154565b6001808260405161028e9190610428565b908152602001604051809103902060020160008282546102ae9190610457565b90915550506040516001906102c4908390610428565b908152604051908190036020018120600201549033907f5db31c63b6c985d138b0b2896458c45ecf94b259da29b7623bdef92b5853d0cd90600090a350565b634e487b7160e01b600052604160045260246000fd5b600082601f83011261032a57600080fd5b813567ffffffffffffffff8082111561034557610345610303565b604051601f8301601f19908116603f0116810190828211818310171561036d5761036d610303565b8160405283815286602085880101111561038657600080fd5b836020870160208301376000602085830101528094505050505092915050565b600080604083850312156103b957600080fd5b823567ffffffffffffffff8111156103d057600080fd5b6103dc85828601610319565b95602094909401359450505050565b6000602082840312156103fd57600080fd5b813567ffffffffffffffff81111561041457600080fd5b61042084828501610319565b949350505050565b6000825160005b81811015610449576020818601810151858301520161042f565b506000920191825250919050565b8082018082111561047857634e487b7160e01b600052601160045260246000fd5b9291505056fea264697066735822122045f2818cfecfd9d90213b493dbd95b3d48b74e3281f326a5f72e0b60ae170fd064736f6c63430008110033",
  "linkReferences": {},
  "deployedLinkReferences": {}
}