{
  "_format": "hh-sol-artifact-1",
  "contractName": "Whitelist",
  "sourceName": "contracts/Whitelist.sol",
  "abi": [
    {
      "inputs": [
        {
          "internalType": "string",
          "name": "_baseURL",
          "type": "string"
        }
      ],
      "stateMutability": "nonpayable",
      "type": "constructor"
    },
    {
      "anonymous": false,
      "inputs": [
        {
          "indexed": true,
          "internalType": "address",
          "name": "user",
          "type": "address"
        },
        {
          "indexed": true,
          "internalType": "uint256",
          "name": "referrals",
          "type": "uint256"
        }
      ],
      "name": "Referral",
      "type": "event"
    },
    {
      "anonymous": false,
      "inputs": [
        {
          "indexed": true,
          "internalType": "address",
          "name": "user",
          "type": "address"
        },
        {
          "indexed": true,
          "internalType": "uint256",
          "name": "amount",
          "type": "uint256"
        }
      ],
      "name": "Whitelisted",
      "type": "event"
    },
    {
      "inputs": [],
      "name": "minAmount",
      "outputs": [
        {
          "internalType": "uint256",
          "name": "",
          "type": "uint256"
        }
      ],
      "stateMutability": "view",
      "type": "function"
    },
    {
      "inputs": [
        {
          "internalType": "string",
          "name": "ID",
          "type": "string"
        }
      ],
      "name": "referral",
      "outputs": [],
      "stateMutability": "nonpayable",
      "type": "function"
    },
    {
      "inputs": [
        {
          "internalType": "string",
          "name": "ID",
          "type": "string"
        },
        {
          "internalType": "uint256",
          "name": "_amount",
          "type": "uint256"
        }
      ],
      "name": "whitelist",
      "outputs": [
        {
          "internalType": "string",
          "name": "",
          "type": "string"
        }
      ],
      "stateMutability": "nonpayable",
      "type": "function"
    },
    {
      "inputs": [
        {
          "internalType": "string",
          "name": "",
          "type": "string"
        }
      ],
      "name": "whitelisted",
      "outputs": [
        {
          "internalType": "address",
          "name": "user",
          "type": "address"
        },
        {
          "internalType": "uint256",
          "name": "amount",
          "type": "uint256"
        },
        {
          "internalType": "uint256",
          "name": "referrals",
          "type": "uint256"
        },
        {
          "internalType": "bool",
          "name": "whitelisted",
          "type": "bool"
        }
      ],
      "stateMutability": "view",
      "type": "function"
    }
  ],
  "bytecode": "0x6080604052600260015534801561001557600080fd5b506040516108e43803806108e48339810160408190526100349161005d565b600061004082826101af565b505061026e565b634e487b7160e01b600052604160045260246000fd5b6000602080838503121561007057600080fd5b82516001600160401b038082111561008757600080fd5b818501915085601f83011261009b57600080fd5b8151818111156100ad576100ad610047565b604051601f8201601f19908116603f011681019083821181831017156100d5576100d5610047565b8160405282815288868487010111156100ed57600080fd5b600093505b8284101561010f57848401860151818501870152928501926100f2565b600086848301015280965050505050505092915050565b600181811c9082168061013a57607f821691505b60208210810361015a57634e487b7160e01b600052602260045260246000fd5b50919050565b601f8211156101aa57600081815260208120601f850160051c810160208610156101875750805b601f850160051c820191505b818110156101a657828155600101610193565b5050505b505050565b81516001600160401b038111156101c8576101c8610047565b6101dc816101d68454610126565b84610160565b602080601f83116001811461021157600084156101f95750858301515b600019600386901b1c1916600185901b1785556101a6565b600085815260208120601f198616915b8281101561024057888601518255948401946001909101908401610221565b508582101561025e5787850151600019600388901b60f8161c191681555b5050505050600190811b01905550565b6106678061027d6000396000f3fe608060405234801561001057600080fd5b506004361061004c5760003560e01c806314f2f34914610051578063654ad8a71461007a5780636909818e146100f65780639b2cb5d81461010b575b600080fd5b61006461005f366004610455565b610122565b60405161007191906104be565b60405180910390f35b6100ca6100883660046104f1565b80516020818301810180516002808352938301929094019190912092905281546001830154918301546003909301546001600160a01b03909116929060ff1684565b604080516001600160a01b03909516855260208501939093529183015215156060820152608001610071565b6101096101043660046104f1565b6102c7565b005b61011460015481565b604051908152602001610071565b606060015482101561017b5760405162461bcd60e51b815260206004820152601a60248201527f4e6f7420656c696769626c6520666f722057686974656c69737400000000000060448201526064015b60405180910390fd5b60028360405161018b919061054a565b9081526040519081900360200190206003015460ff16156101e45760405162461bcd60e51b8152602060048201526013602482015272105b1c9958591e481dda1a5d195b1a5cdd1959606a1b6044820152606401610172565b6040805160808101825233815260208101849052600081830152600160608201529051819060029061021790879061054a565b9081526040805160209281900383018120845181546001600160a01b0319166001600160a01b039091161781559284015160018401559083015160028301556060909201516003909101805460ff1916911515919091179055839033907f6ea640312e182de387819fbeb13be00db3171a445412852248559054871c419990600090a36000846040516020016102ae929190610566565b6040516020818303038152906040529150505b92915050565b6002816040516102d7919061054a565b9081526040519081900360200190206003015460ff1661032b5760405162461bcd60e51b815260206004820152600f60248201526e139bdd081dda1a5d195b1a5cdd1959608a1b6044820152606401610172565b600160028260405161033d919061054a565b9081526020016040518091039020600201600082825461035d9190610610565b909155505060405160029061037390839061054a565b908152604051908190036020018120600201549033907f5db31c63b6c985d138b0b2896458c45ecf94b259da29b7623bdef92b5853d0cd90600090a350565b634e487b7160e01b600052604160045260246000fd5b600082601f8301126103d957600080fd5b813567ffffffffffffffff808211156103f4576103f46103b2565b604051601f8301601f19908116603f0116810190828211818310171561041c5761041c6103b2565b8160405283815286602085880101111561043557600080fd5b836020870160208301376000602085830101528094505050505092915050565b6000806040838503121561046857600080fd5b823567ffffffffffffffff81111561047f57600080fd5b61048b858286016103c8565b95602094909401359450505050565b60005b838110156104b557818101518382015260200161049d565b50506000910152565b60208152600082518060208401526104dd81604085016020870161049a565b601f01601f19169190910160400192915050565b60006020828403121561050357600080fd5b813567ffffffffffffffff81111561051a57600080fd5b610526848285016103c8565b949350505050565b6000815161054081856020860161049a565b9290920192915050565b6000825161055c81846020870161049a565b9190910192915050565b600080845481600182811c91508083168061058257607f831692505b602080841082036105a157634e487b7160e01b86526022600452602486fd5b8180156105b557600181146105ca576105f7565b60ff19861689528415158502890196506105f7565b60008b81526020902060005b868110156105ef5781548b8201529085019083016105d6565b505084890196505b505050505050610607818561052e565b95945050505050565b808201808211156102c157634e487b7160e01b600052601160045260246000fdfea26469706673582212205a64ee97418cc4f5acd24b0c64703a4570e7c759f99fc049ba86fe6e21b6e6a564736f6c63430008110033",
  "linkReferences": {},
  "deployedLinkReferences": {}
}